{
    "contractName": "SupplyChain",
    "abi": [
        {
            "inputs": [],
            "stateMutability": "payable",
            "type": "constructor"
        },
        {
            "anonymous": false,
            "inputs": [
                {
                    "indexed": false,
                    "internalType": "address",
                    "name": "consumer",
                    "type": "address"
                }
            ],
            "name": "ConsumerAdded",
            "type": "event"
        },
        {
            "anonymous": false,
            "inputs": [
                {
                    "indexed": false,
                    "internalType": "address",
                    "name": "consumer",
                    "type": "address"
                }
            ],
            "name": "ConsumerRemoved",
            "type": "event"
        },
        {
            "anonymous": false,
            "inputs": [
                {
                    "indexed": false,
                    "internalType": "address",
                    "name": "distributor",
                    "type": "address"
                }
            ],
            "name": "DistributorAdded",
            "type": "event"
        },
        {
            "anonymous": false,
            "inputs": [
                {
                    "indexed": false,
                    "internalType": "address",
                    "name": "distributor",
                    "type": "address"
                }
            ],
            "name": "DistributorRemoved",
            "type": "event"
        },
        {
            "anonymous": false,
            "inputs": [
                {
                    "indexed": false,
                    "internalType": "address",
                    "name": "farmers",
                    "type": "address"
                }
            ],
            "name": "FarmerAdded",
            "type": "event"
        },
        {
            "anonymous": false,
            "inputs": [
                {
                    "indexed": false,
                    "internalType": "address",
                    "name": "farmers",
                    "type": "address"
                }
            ],
            "name": "FarmerRemoved",
            "type": "event"
        },
        {
            "anonymous": false,
            "inputs": [
                {
                    "indexed": false,
                    "internalType": "uint256",
                    "name": "upc",
                    "type": "uint256"
                }
            ],
            "name": "ForSale",
            "type": "event"
        },
        {
            "anonymous": false,
            "inputs": [
                {
                    "indexed": false,
                    "internalType": "uint256",
                    "name": "upc",
                    "type": "uint256"
                }
            ],
            "name": "Harvested",
            "type": "event"
        },
        {
            "anonymous": false,
            "inputs": [
                {
                    "indexed": false,
                    "internalType": "uint256",
                    "name": "upc",
                    "type": "uint256"
                }
            ],
            "name": "Packed",
            "type": "event"
        },
        {
            "anonymous": false,
            "inputs": [
                {
                    "indexed": false,
                    "internalType": "uint256",
                    "name": "upc",
                    "type": "uint256"
                }
            ],
            "name": "Processed",
            "type": "event"
        },
        {
            "anonymous": false,
            "inputs": [
                {
                    "indexed": false,
                    "internalType": "uint256",
                    "name": "upc",
                    "type": "uint256"
                }
            ],
            "name": "Purchased",
            "type": "event"
        },
        {
            "anonymous": false,
            "inputs": [
                {
                    "indexed": false,
                    "internalType": "uint256",
                    "name": "upc",
                    "type": "uint256"
                }
            ],
            "name": "Received",
            "type": "event"
        },
        {
            "anonymous": false,
            "inputs": [
                {
                    "indexed": false,
                    "internalType": "address",
                    "name": "retailer",
                    "type": "address"
                }
            ],
            "name": "RetailerAdded",
            "type": "event"
        },
        {
            "anonymous": false,
            "inputs": [
                {
                    "indexed": false,
                    "internalType": "address",
                    "name": "retailer",
                    "type": "address"
                }
            ],
            "name": "RetailerRemoved",
            "type": "event"
        },
        {
            "anonymous": false,
            "inputs": [
                {
                    "indexed": false,
                    "internalType": "uint256",
                    "name": "upc",
                    "type": "uint256"
                }
            ],
            "name": "Shipped",
            "type": "event"
        },
        {
            "anonymous": false,
            "inputs": [
                {
                    "indexed": false,
                    "internalType": "uint256",
                    "name": "upc",
                    "type": "uint256"
                }
            ],
            "name": "Sold",
            "type": "event"
        },
        {
            "anonymous": false,
            "inputs": [
                {
                    "indexed": true,
                    "internalType": "address",
                    "name": "oldOwner",
                    "type": "address"
                },
                {
                    "indexed": true,
                    "internalType": "address",
                    "name": "newOwner",
                    "type": "address"
                }
            ],
            "name": "TransferOwnership",
            "type": "event"
        },
        {
            "inputs": [
                {
                    "internalType": "address",
                    "name": "account",
                    "type": "address"
                }
            ],
            "name": "addConsumer",
            "outputs": [],
            "stateMutability": "nonpayable",
            "type": "function"
        },
        {
            "inputs": [
                {
                    "internalType": "address",
                    "name": "account",
                    "type": "address"
                }
            ],
            "name": "addDistributor",
            "outputs": [],
            "stateMutability": "nonpayable",
            "type": "function"
        },
        {
            "inputs": [
                {
                    "internalType": "address",
                    "name": "account",
                    "type": "address"
                }
            ],
            "name": "addFarmer",
            "outputs": [],
            "stateMutability": "nonpayable",
            "type": "function"
        },
        {
            "inputs": [
                {
                    "internalType": "uint256",
                    "name": "_upc",
                    "type": "uint256"
                },
                {
                    "internalType": "uint256",
                    "name": "_units",
                    "type": "uint256"
                }
            ],
            "name": "addItem",
            "outputs": [],
            "stateMutability": "nonpayable",
            "type": "function"
        },
        {
            "inputs": [
                {
                    "internalType": "address",
                    "name": "account",
                    "type": "address"
                }
            ],
            "name": "addRetailer",
            "outputs": [],
            "stateMutability": "nonpayable",
            "type": "function"
        },
        {
            "inputs": [
                {
                    "internalType": "uint256",
                    "name": "_upc",
                    "type": "uint256"
                }
            ],
            "name": "buyItem",
            "outputs": [],
            "stateMutability": "payable",
            "type": "function"
        },
        {
            "inputs": [
                {
                    "internalType": "uint256",
                    "name": "_upc",
                    "type": "uint256"
                }
            ],
            "name": "fetchItemBufferOne",
            "outputs": [
                {
                    "internalType": "uint256",
                    "name": "itemSKU",
                    "type": "uint256"
                },
                {
                    "internalType": "uint256",
                    "name": "itemUPC",
                    "type": "uint256"
                },
                {
                    "internalType": "address",
                    "name": "ownerID",
                    "type": "address"
                },
                {
                    "internalType": "address",
                    "name": "originFarmerID",
                    "type": "address"
                },
                {
                    "internalType": "string",
                    "name": "originFarmName",
                    "type": "string"
                },
                {
                    "internalType": "string",
                    "name": "originFarmInformation",
                    "type": "string"
                },
                {
                    "internalType": "string",
                    "name": "originFarmLatitude",
                    "type": "string"
                },
                {
                    "internalType": "string",
                    "name": "originFarmLongitude",
                    "type": "string"
                }
            ],
            "stateMutability": "view",
            "type": "function"
        },
        {
            "inputs": [
                {
                    "internalType": "uint256",
                    "name": "_upc",
                    "type": "uint256"
                }
            ],
            "name": "fetchItemBufferTwo",
            "outputs": [
                {
                    "internalType": "uint256",
                    "name": "itemSKU",
                    "type": "uint256"
                },
                {
                    "internalType": "uint256",
                    "name": "itemUPC",
                    "type": "uint256"
                },
                {
                    "internalType": "uint256",
                    "name": "productID",
                    "type": "uint256"
                },
                {
                    "internalType": "string",
                    "name": "productNotes",
                    "type": "string"
                },
                {
                    "internalType": "uint256",
                    "name": "productPrice",
                    "type": "uint256"
                },
                {
                    "internalType": "uint256",
                    "name": "itemState",
                    "type": "uint256"
                },
                {
                    "internalType": "address",
                    "name": "distributorID",
                    "type": "address"
                },
                {
                    "internalType": "address",
                    "name": "retailerID",
                    "type": "address"
                },
                {
                    "internalType": "address",
                    "name": "consumerID",
                    "type": "address"
                }
            ],
            "stateMutability": "view",
            "type": "function"
        },
        {
            "inputs": [
                {
                    "internalType": "uint256",
                    "name": "_upc",
                    "type": "uint256"
                },
                {
                    "internalType": "address",
                    "name": "_originFarmerID",
                    "type": "address"
                },
                {
                    "internalType": "string",
                    "name": "_originFarmName",
                    "type": "string"
                },
                {
                    "internalType": "string",
                    "name": "_originFarmInformation",
                    "type": "string"
                },
                {
                    "internalType": "string",
                    "name": "_originFarmLatitude",
                    "type": "string"
                },
                {
                    "internalType": "string",
                    "name": "_originFarmLongitude",
                    "type": "string"
                },
                {
                    "internalType": "string",
                    "name": "_productNotes",
                    "type": "string"
                }
            ],
            "name": "harvestItem",
            "outputs": [],
            "stateMutability": "nonpayable",
            "type": "function"
        },
        {
            "inputs": [
                {
                    "internalType": "address",
                    "name": "account",
                    "type": "address"
                }
            ],
            "name": "isConsumer",
            "outputs": [
                {
                    "internalType": "bool",
                    "name": "",
                    "type": "bool"
                }
            ],
            "stateMutability": "view",
            "type": "function"
        },
        {
            "inputs": [
                {
                    "internalType": "address",
                    "name": "account",
                    "type": "address"
                }
            ],
            "name": "isDistributor",
            "outputs": [
                {
                    "internalType": "bool",
                    "name": "",
                    "type": "bool"
                }
            ],
            "stateMutability": "view",
            "type": "function"
        },
        {
            "inputs": [
                {
                    "internalType": "address",
                    "name": "account",
                    "type": "address"
                }
            ],
            "name": "isFarmer",
            "outputs": [
                {
                    "internalType": "bool",
                    "name": "",
                    "type": "bool"
                }
            ],
            "stateMutability": "view",
            "type": "function"
        },
        {
            "inputs": [],
            "name": "isOwner",
            "outputs": [
                {
                    "internalType": "bool",
                    "name": "",
                    "type": "bool"
                }
            ],
            "stateMutability": "view",
            "type": "function"
        },
        {
            "inputs": [
                {
                    "internalType": "address",
                    "name": "account",
                    "type": "address"
                }
            ],
            "name": "isRetailer",
            "outputs": [
                {
                    "internalType": "bool",
                    "name": "",
                    "type": "bool"
                }
            ],
            "stateMutability": "view",
            "type": "function"
        },
        {
            "inputs": [],
            "name": "kill",
            "outputs": [],
            "stateMutability": "nonpayable",
            "type": "function"
        },
        {
            "inputs": [],
            "name": "owner",
            "outputs": [
                {
                    "internalType": "address",
                    "name": "",
                    "type": "address"
                }
            ],
            "stateMutability": "view",
            "type": "function"
        },
        {
            "inputs": [
                {
                    "internalType": "uint256",
                    "name": "_upc",
                    "type": "uint256"
                }
            ],
            "name": "packItem",
            "outputs": [],
            "stateMutability": "nonpayable",
            "type": "function"
        },
        {
            "inputs": [
                {
                    "internalType": "uint256",
                    "name": "_upc",
                    "type": "uint256"
                }
            ],
            "name": "processItem",
            "outputs": [],
            "stateMutability": "nonpayable",
            "type": "function"
        },
        {
            "inputs": [
                {
                    "internalType": "uint256",
                    "name": "_upc",
                    "type": "uint256"
                }
            ],
            "name": "purchaseItem",
            "outputs": [],
            "stateMutability": "nonpayable",
            "type": "function"
        },
        {
            "inputs": [
                {
                    "internalType": "uint256",
                    "name": "_upc",
                    "type": "uint256"
                },
                {
                    "internalType": "uint256",
                    "name": "_price",
                    "type": "uint256"
                }
            ],
            "name": "putForSale",
            "outputs": [],
            "stateMutability": "nonpayable",
            "type": "function"
        },
        {
            "inputs": [
                {
                    "internalType": "uint256",
                    "name": "_upc",
                    "type": "uint256"
                }
            ],
            "name": "receiveItem",
            "outputs": [],
            "stateMutability": "nonpayable",
            "type": "function"
        },
        {
            "inputs": [],
            "name": "renounceConsumer",
            "outputs": [],
            "stateMutability": "nonpayable",
            "type": "function"
        },
        {
            "inputs": [],
            "name": "renounceDistributor",
            "outputs": [],
            "stateMutability": "nonpayable",
            "type": "function"
        },
        {
            "inputs": [],
            "name": "renounceFarmer",
            "outputs": [],
            "stateMutability": "nonpayable",
            "type": "function"
        },
        {
            "inputs": [],
            "name": "renounceOwnership",
            "outputs": [],
            "stateMutability": "nonpayable",
            "type": "function"
        },
        {
            "inputs": [],
            "name": "renounceRetailer",
            "outputs": [],
            "stateMutability": "nonpayable",
            "type": "function"
        },
        {
            "inputs": [
                {
                    "internalType": "uint256",
                    "name": "_upc",
                    "type": "uint256"
                }
            ],
            "name": "shipItem",
            "outputs": [],
            "stateMutability": "nonpayable",
            "type": "function"
        },
        {
            "inputs": [
                {
                    "internalType": "address",
                    "name": "newOwner",
                    "type": "address"
                }
            ],
            "name": "transferOwnership",
            "outputs": [],
            "stateMutability": "nonpayable",
            "type": "function"
        }
    ],
    "bytecode": "60806040526200000f3362000080565b6200001a33620000db565b620000253362000130565b620000303362000185565b600480546001600160a01b031916339081179091556040516000907f5c486528ec3e3f0ea91181cff8116f02bfa350e03b8b6f12e00765adbb5af85c908290a36001600681905560055562000260565b6200009b816000620001da60201b620015b21790919060201c565b6040516001600160a01b03821681527fddbf200aa634dc3fb81cfd68583dd1040d1c751d335e1d86b631bde3e977fea8906020015b60405180910390a150565b620000f6816001620001da60201b620015b21790919060201c565b6040516001600160a01b03821681527f28b26e7a3d20aedbc5f8f2ebf7da671c0491723a2b78f47a097b0e46dee0714290602001620000d0565b6200014b816002620001da60201b620015b21790919060201c565b6040516001600160a01b03821681527f71ae26cad02663e3d92efd6ec56031a80d74a20c0ab4183faa8bf262261c9baa90602001620000d0565b620001a0816003620001da60201b620015b21790919060201c565b6040516001600160a01b03821681527f2e0ded4123377a3c2bc9a26f1717655a129e2f20752924d42e730ec89c83dbd090602001620000d0565b6001600160a01b038116620001ee57600080fd5b620001fa82826200022a565b156200020557600080fd5b6001600160a01b0316600090815260209190915260409020805460ff19166001179055565b60006001600160a01b0382166200024057600080fd5b506001600160a01b03166000908152602091909152604090205460ff1690565b611e8d80620002706000396000f3fe6080604052600436106101b75760003560e01c80638da5cb5b116100ec578063bdd8a6a81161008a578063e7fb74c711610064578063e7fb74c7146104c2578063f2fde38b146104d5578063f30fc480146104f5578063f61c899a1461051557600080fd5b8063bdd8a6a81461046d578063d38ea5bf1461048d578063db0e6a2f146104ad57600080fd5b80638f32d59b116100c65780638f32d59b146103ed578063a21252321461040d578063a26be9991461042d578063b94290691461044d57600080fd5b80638da5cb5b146103855780638ec4f505146103ad5780638f0c86fa146103cd57600080fd5b806366225ff91161015957806377c459131161013357806377c45913146102fc57806380c3f96d1461033057806380fc0ce414610350578063834ff7391461036557600080fd5b806366225ff914610292578063715018a6146102c75780637250e224146102dc57600080fd5b806349dae7661161019557806349dae766146102135780635da09b881461023357806361e6982d14610268578063644241db1461027d57600080fd5b8063112940f9146101bc5780633cd76be2146101de57806341c0e1b5146101fe575b600080fd5b3480156101c857600080fd5b506101dc6101d736600461192d565b610535565b005b3480156101ea57600080fd5b506101dc6101f936600461194f565b61059b565b34801561020a57600080fd5b506101dc610652565b34801561021f57600080fd5b506101dc61022e366004611971565b610677565b34801561023f57600080fd5b5061025361024e36600461192d565b610725565b60405190151581526020015b60405180910390f35b34801561027457600080fd5b506101dc610738565b34801561028957600080fd5b506101dc610743565b34801561029e57600080fd5b506102b26102ad366004611971565b61074c565b60405161025f999897969594939291906119d0565b3480156102d357600080fd5b506101dc610886565b3480156102e857600080fd5b506101dc6102f736600461192d565b6108e7565b34801561030857600080fd5b5061031c610317366004611971565b610915565b60405161025f989796959493929190611a30565b34801561033c57600080fd5b506101dc61034b36600461192d565b610bcb565b34801561035c57600080fd5b506101dc610bf9565b34801561037157600080fd5b5061025361038036600461192d565b610c02565b34801561039157600080fd5b506004546040516001600160a01b03909116815260200161025f565b3480156103b957600080fd5b506101dc6103c836600461192d565b610c0f565b3480156103d957600080fd5b506102536103e836600461192d565b610c6d565b3480156103f957600080fd5b506004546001600160a01b03163314610253565b34801561041957600080fd5b506101dc61042836600461194f565b610c79565b34801561043957600080fd5b506101dc610448366004611971565b610d26565b34801561045957600080fd5b5061025361046836600461192d565b610e24565b34801561047957600080fd5b506101dc610488366004611b58565b610e31565b34801561049957600080fd5b506101dc6104a8366004611971565b611107565b3480156104b957600080fd5b506101dc611209565b6101dc6104d0366004611971565b611212565b3480156104e157600080fd5b506101dc6104f036600461192d565b611444565b34801561050157600080fd5b506101dc610510366004611971565b611464565b34801561052157600080fd5b506101dc610530366004611971565b61150b565b61053e33610c02565b61058f5760405162461bcd60e51b815260206004820152601e60248201527f53656e646572206973206e6f7420612076616c696420636f6e73756d6572000060448201526064015b60405180910390fd5b610598816115fe565b50565b6105a433610e24565b6105c05760405162461bcd60e51b815260040161058690611c44565b8160026000828152600760208190526040909120600b015460ff16908111156105eb576105eb611c7b565b146105f557600080fd5b600083815260076020908152604091829020600b8101805460ff19166003179055600a0184905590518481527fa96ae0fc3224ebd79eebfe54bd130cc9cb94416cddd1f2386115e00b7253246891015b60405180910390a1505050565b6004546001600160a01b0316331461066957600080fd5b6004546001600160a01b0316ff5b61068033610e24565b61069c5760405162461bcd60e51b815260040161058690611c44565b80600080828152600760208190526040909120600b015460ff16908111156106c6576106c6611c7b565b146106d057600080fd5b600082815260076020908152604091829020600b01805460ff1916600117905590518381527f5afe3b1bf87069693c075da5c22a98d63d1aef98a30dbbe538d0781a98b77ee591015b60405180910390a15050565b6000610732600283611649565b92915050565b6107413361167e565b565b610741336116c2565b60008181526007602052604081208054600182015460088301546009909301805492949193926060929182918291829182919061078890611c91565b80601f01602080910402602001604051908101604052809291908181526020018280546107b490611c91565b80156108015780601f106107d657610100808354040283529160200191610801565b820191906000526020600020905b8154815290600101906020018083116107e457829003601f168201915b50505060008d8152600760208190526040909120600a810154600b90910154949a50985060ff90931692831115915061083e90505761083e611c7b565b60008b8152600760205260409020600b810154600c820154600d909201549296506001600160a01b036101009091048116955090811693501690509193959799909294969850565b6004546001600160a01b0316331461089d57600080fd5b6004546040516000916001600160a01b0316907f5c486528ec3e3f0ea91181cff8116f02bfa350e03b8b6f12e00765adbb5af85c908390a3600480546001600160a01b0319169055565b6108f033610c6d565b61090c5760405162461bcd60e51b815260040161058690611ccb565b61059881611706565b6000818152600760205260409020805460018201546002830154600384015460049094018054939492936001600160a01b03928316939092169160609182918291829161096190611c91565b80601f016020809104026020016040519081016040528092919081815260200182805461098d90611c91565b80156109da5780601f106109af576101008083540402835291602001916109da565b820191906000526020600020905b8154815290600101906020018083116109bd57829003601f168201915b50505060008c8152600760205260409020600501805493975092610a0092509050611c91565b80601f0160208091040260200160405190810160405280929190818152602001828054610a2c90611c91565b8015610a795780601f10610a4e57610100808354040283529160200191610a79565b820191906000526020600020905b815481529060010190602001808311610a5c57829003601f168201915b50505060008c8152600760205260409020600601805493965092610a9f92509050611c91565b80601f0160208091040260200160405190810160405280929190818152602001828054610acb90611c91565b8015610b185780601f10610aed57610100808354040283529160200191610b18565b820191906000526020600020905b815481529060010190602001808311610afb57829003601f168201915b50505050509150600760008a81526020019081526020016000206007018054610b4090611c91565b80601f0160208091040260200160405190810160405280929190818152602001828054610b6c90611c91565b8015610bb95780601f10610b8e57610100808354040283529160200191610bb9565b820191906000526020600020905b815481529060010190602001808311610b9c57829003601f168201915b50505050509050919395975091939597565b610bd433610e24565b610bf05760405162461bcd60e51b815260040161058690611c44565b6105988161174a565b6107413361178e565b6000610732600183611649565b610c1833610725565b610c645760405162461bcd60e51b815260206004820152601e60248201527f53656e646572206973206e6f7420612076616c69642072657461696c657200006044820152606401610586565b610598816117d2565b60006107328183611649565b610c8233610e24565b610c9e5760405162461bcd60e51b815260040161058690611c44565b8160026000828152600760208190526040909120600b015460ff1690811115610cc957610cc9611c7b565b14610cd357600080fd5b60008381526007602052604081208054849290610cf1908490611d22565b90915550506040518381527f9b3b66e2380b690bae22c73ef1428fb0c91e72fe14a4b6defa13035214187aff90602001610645565b610d2f33610725565b610d7b5760405162461bcd60e51b815260206004820152601e60248201527f53656e646572206973206e6f7420612076616c69642072657461696c657200006044820152606401610586565b8060056000828152600760208190526040909120600b015460ff1690811115610da657610da6611c7b565b14610db057600080fd5b6000828152600760209081526040918290206002810180546001600160a01b031990811633908117909255600c830180549091169091179055600b01805460ff1916600617905590518381527fa8142743f8f70a4c26f3691cf4ed59718381fb2f18070ec52be1f1022d8555579101610719565b6000610732600383611649565b610e3a33610e24565b610e565760405162461bcd60e51b815260040161058690611c44565b60008781526007602052604090206001015415610ec35760405162461bcd60e51b815260206004820152602560248201527f546865205550432070726f766964656420697320616c72656164792068617276604482015264195cdd195960da1b6064820152608401610586565b604051806101e0016040528060018152602001888152602001336001600160a01b03168152602001876001600160a01b0316815260200186815260200185815260200184815260200183815260200160065489610f209190611d22565b81526020018281526020016000815260200160006007811115610f4557610f45611c7b565b815260006020808301829052604080840183905260609384018390528b8352600782529182902084518155908401516001820155908301516002820180546001600160a01b03199081166001600160a01b03938416179091559284015160038301805490941691161790915560808201516004820190610fc59082611d84565b5060a08201516005820190610fda9082611d84565b5060c08201516006820190610fef9082611d84565b5060e082015160078201906110049082611d84565b50610100820151600882015561012082015160098201906110259082611d84565b50610140820151600a820155610160820151600b8201805460ff1916600183600781111561105557611055611c7b565b0217905550610180820151600b82018054610100600160a81b0319166101006001600160a01b03938416021790556101a0830151600c830180546001600160a01b03199081169284169290921790556101c090930151600d909201805490931691161790556006546110c8906001611d22565b6006556040518781527f8e55ccfc9778ff8eba1646d765cf1982537ce0f9257054a17b48aad7452501839060200160405180910390a150505050505050565b61111033610c02565b61115c5760405162461bcd60e51b815260206004820152601e60248201527f53656e646572206973206e6f7420612076616c696420636f6e73756d657200006044820152606401610586565b8060066000828152600760208190526040909120600b015460ff169081111561118757611187611c7b565b1461119157600080fd5b6000828152600760208190526040909120600281018054336001600160a01b03199182168117909255600d830180549091169091179055600b01805460ff191660018302179055506040518281527f653d56639fee6b566a5c804764e9689de38645f0b733df89a36a1b7b42173dd890602001610719565b61074133611816565b61121b33610c6d565b6112375760405162461bcd60e51b815260040161058690611ccb565b8060036000828152600760208190526040909120600b015460ff169081111561126257611262611c7b565b1461126c57600080fd5b6000828152600760205260409020600a01543481111561128b57600080fd5b6000838152600760205260409020600a015483903410156112ab57600080fd5b6000848152600760205260408082206003015490516001600160a01b039091169034908381818185875af1925050503d8060008114611306576040519150601f19603f3d011682016040523d82523d6000602084013e61130b565b606091505b50509050806113535760405162461bcd60e51b81526020600482015260146024820152732330b4b632b2103a379039b2b7321022ba3432b960611b6044820152606401610586565b600085815260076020908152604091829020600281018054336001600160a01b03199091168117909155600b90910180546001600160a81b03191660ff196101009093029290921691909117600417905590518681527f92f64ca637d023f354075a4be751b169c1a8a9ccb6d33cdd0cb3520543995727910160405180910390a1506000818152600760205260408120600a0154906113f28234611e44565b600084815260076020526040808220600d015490519293506001600160a01b03169183156108fc0291849190818181858888f1935050505015801561143b573d6000803e3d6000fd5b50505050505050565b6004546001600160a01b0316331461145b57600080fd5b6105988161185a565b61146d33610e24565b6114895760405162461bcd60e51b815260040161058690611c44565b8060016000828152600760208190526040909120600b015460ff16908111156114b4576114b4611c7b565b146114be57600080fd5b600082815260076020908152604091829020600b01805460ff1916600217905590518381527f9b3b66e2380b690bae22c73ef1428fb0c91e72fe14a4b6defa13035214187aff9101610719565b61151433610c6d565b6115305760405162461bcd60e51b815260040161058690611ccb565b8060046000828152600760208190526040909120600b015460ff169081111561155b5761155b611c7b565b1461156557600080fd5b600082815260076020908152604091829020600b01805460ff1916600517905590518381527ff00b9a5725b80c54016f42114f6ed7792d22eecb116011c4afac29c57bef6c959101610719565b6001600160a01b0381166115c557600080fd5b6115cf8282611649565b156115d957600080fd5b6001600160a01b0316600090815260209190915260409020805460ff19166001179055565b6116096001826115b2565b6040516001600160a01b03821681527f28b26e7a3d20aedbc5f8f2ebf7da671c0491723a2b78f47a097b0e46dee07142906020015b60405180910390a150565b60006001600160a01b03821661165e57600080fd5b506001600160a01b03166000908152602091909152604090205460ff1690565b6116896001826118c9565b6040516001600160a01b03821681527fe3f5ed5f263f1f01764a96edfc7d025f511ec5f7d180e8816908b78bcf74f0989060200161163e565b6116cd6000826118c9565b6040516001600160a01b03821681527f126174f6cf49c81cdb4a9214c6b8f037bef55b4ec31e4fc776cea2a1c8a88d599060200161163e565b6117116000826115b2565b6040516001600160a01b03821681527fddbf200aa634dc3fb81cfd68583dd1040d1c751d335e1d86b631bde3e977fea89060200161163e565b6117556003826115b2565b6040516001600160a01b03821681527f2e0ded4123377a3c2bc9a26f1717655a129e2f20752924d42e730ec89c83dbd09060200161163e565b6117996003826118c9565b6040516001600160a01b03821681527fa5e0f060af304ab17dd418c7927e3da3ae7868189bf387aee09ab179ccc572f29060200161163e565b6117dd6002826115b2565b6040516001600160a01b03821681527f71ae26cad02663e3d92efd6ec56031a80d74a20c0ab4183faa8bf262261c9baa9060200161163e565b6118216002826118c9565b6040516001600160a01b03821681527fdb7176e79cffef81cb01767dd0447a0b24bb72ca9778d4b245581086b2a7e6db9060200161163e565b6001600160a01b03811661186d57600080fd5b6004546040516001600160a01b038084169216907f5c486528ec3e3f0ea91181cff8116f02bfa350e03b8b6f12e00765adbb5af85c90600090a3600480546001600160a01b0319166001600160a01b0392909216919091179055565b6001600160a01b0381166118dc57600080fd5b6118e68282611649565b6118ef57600080fd5b6001600160a01b0316600090815260209190915260409020805460ff19169055565b80356001600160a01b038116811461192857600080fd5b919050565b60006020828403121561193f57600080fd5b61194882611911565b9392505050565b6000806040838503121561196257600080fd5b50508035926020909101359150565b60006020828403121561198357600080fd5b5035919050565b6000815180845260005b818110156119b057602081850181015186830182015201611994565b506000602082860101526020601f19601f83011685010191505092915050565b60006101208b83528a60208401528960408401528060608401526119f68184018a61198a565b6080840198909852505060a08101949094526001600160a01b0392831660c085015290821660e08401521661010090910152949350505050565b888152602081018890526001600160a01b0387811660408301528616606082015261010060808201819052600090611a6a8382018861198a565b905082810360a0840152611a7e818761198a565b905082810360c0840152611a92818661198a565b905082810360e0840152611aa6818561198a565b9b9a5050505050505050505050565b634e487b7160e01b600052604160045260246000fd5b600082601f830112611adc57600080fd5b813567ffffffffffffffff80821115611af757611af7611ab5565b604051601f8301601f19908116603f01168101908282118183101715611b1f57611b1f611ab5565b81604052838152866020858801011115611b3857600080fd5b836020870160208301376000602085830101528094505050505092915050565b600080600080600080600060e0888a031215611b7357600080fd5b87359650611b8360208901611911565b9550604088013567ffffffffffffffff80821115611ba057600080fd5b611bac8b838c01611acb565b965060608a0135915080821115611bc257600080fd5b611bce8b838c01611acb565b955060808a0135915080821115611be457600080fd5b611bf08b838c01611acb565b945060a08a0135915080821115611c0657600080fd5b611c128b838c01611acb565b935060c08a0135915080821115611c2857600080fd5b50611c358a828b01611acb565b91505092959891949750929550565b6020808252601c908201527f53656e646572206973206e6f7420612076616c6964206661726d657200000000604082015260600190565b634e487b7160e01b600052602160045260246000fd5b600181811c90821680611ca557607f821691505b602082108103611cc557634e487b7160e01b600052602260045260246000fd5b50919050565b60208082526021908201527f53656e646572206973206e6f7420612076616c6964206469737472696275746f6040820152603960f91b606082015260800190565b634e487b7160e01b600052601160045260246000fd5b8082018082111561073257610732611d0c565b601f821115611d7f57600081815260208120601f850160051c81016020861015611d5c5750805b601f850160051c820191505b81811015611d7b57828155600101611d68565b5050505b505050565b815167ffffffffffffffff811115611d9e57611d9e611ab5565b611db281611dac8454611c91565b84611d35565b602080601f831160018114611de75760008415611dcf5750858301515b600019600386901b1c1916600185901b178555611d7b565b600085815260208120601f198616915b82811015611e1657888601518255948401946001909101908401611df7565b5085821015611e345787850151600019600388901b60f8161c191681555b5050505050600190811b01905550565b8181038181111561073257610732611d0c56fea264697066735822122030e2cd19bf7e7b0788c6206d92ea260adee5ddd59cd404fafcc498119357cb2f64736f6c63430008100033",
    "sourcePath": "/home/isma/Desktop/code/blockchain/CoffeBeanChain/truffle/contracts/coffeebase/SupplyChain.sol",
    "compiler": {
        "name": "solc",
        "version": "0.8.16+commit.07a7930e"
    },
    "functionHashes": {
        "addConsumer(address)": "112940f9",
        "addDistributor(address)": "7250e224",
        "addFarmer(address)": "80c3f96d",
        "addItem(uint256,uint256)": "a2125232",
        "addRetailer(address)": "8ec4f505",
        "buyItem(uint256)": "e7fb74c7",
        "fetchItemBufferOne(uint256)": "77c45913",
        "fetchItemBufferTwo(uint256)": "66225ff9",
        "harvestItem(uint256,address,string,string,string,string,string)": "bdd8a6a8",
        "isConsumer(address)": "834ff739",
        "isDistributor(address)": "8f0c86fa",
        "isFarmer(address)": "b9429069",
        "isOwner()": "8f32d59b",
        "isRetailer(address)": "5da09b88",
        "kill()": "41c0e1b5",
        "owner()": "8da5cb5b",
        "packItem(uint256)": "f30fc480",
        "processItem(uint256)": "49dae766",
        "purchaseItem(uint256)": "d38ea5bf",
        "putForSale(uint256,uint256)": "3cd76be2",
        "receiveItem(uint256)": "a26be999",
        "renounceConsumer()": "61e6982d",
        "renounceDistributor()": "644241db",
        "renounceFarmer()": "80fc0ce4",
        "renounceOwnership()": "715018a6",
        "renounceRetailer()": "db0e6a2f",
        "shipItem(uint256)": "f61c899a",
        "transferOwnership(address)": "f2fde38b"
    },
    "gasEstimates": {
        "creation": {
            "codeDepositCost": "1564200",
            "executionCost": "infinite",
            "totalCost": "infinite"
        },
        "external": {
            "addConsumer(address)": "infinite",
            "addDistributor(address)": "infinite",
            "addFarmer(address)": "infinite",
            "addItem(uint256,uint256)": "infinite",
            "addRetailer(address)": "infinite",
            "buyItem(uint256)": "infinite",
            "fetchItemBufferOne(uint256)": "infinite",
            "fetchItemBufferTwo(uint256)": "infinite",
            "harvestItem(uint256,address,string,string,string,string,string)": "infinite",
            "isConsumer(address)": "2750",
            "isDistributor(address)": "2729",
            "isFarmer(address)": "2750",
            "isOwner()": "2355",
            "isRetailer(address)": "2707",
            "kill()": "32087",
            "owner()": "2347",
            "packItem(uint256)": "30251",
            "processItem(uint256)": "30198",
            "purchaseItem(uint256)": "78726",
            "putForSale(uint256,uint256)": "52361",
            "receiveItem(uint256)": "78741",
            "renounceConsumer()": "28008",
            "renounceDistributor()": "28030",
            "renounceFarmer()": "28007",
            "renounceOwnership()": "30230",
            "renounceRetailer()": "28007",
            "shipItem(uint256)": "30273",
            "transferOwnership(address)": "30495"
        }
    }
}