{
  "contractName": "FarmerRole",
  "abi": [
    {
      "inputs": [],
      "stateMutability": "nonpayable",
      "type": "constructor"
    },
    {
      "anonymous": false,
      "inputs": [
        {
          "indexed": false,
          "internalType": "address",
          "name": "farmers",
          "type": "address"
        }
      ],
      "name": "FarmerAdded",
      "type": "event"
    },
    {
      "anonymous": false,
      "inputs": [
        {
          "indexed": false,
          "internalType": "address",
          "name": "farmers",
          "type": "address"
        }
      ],
      "name": "FarmerRemoved",
      "type": "event"
    },
    {
      "inputs": [
        {
          "internalType": "address",
          "name": "account",
          "type": "address"
        }
      ],
      "name": "isFarmer",
      "outputs": [
        {
          "internalType": "bool",
          "name": "",
          "type": "bool"
        }
      ],
      "stateMutability": "view",
      "type": "function",
      "constant": true
    },
    {
      "inputs": [
        {
          "internalType": "address",
          "name": "account",
          "type": "address"
        }
      ],
      "name": "addFarmer",
      "outputs": [],
      "stateMutability": "nonpayable",
      "type": "function"
    },
    {
      "inputs": [],
      "name": "renounceFarmer",
      "outputs": [],
      "stateMutability": "nonpayable",
      "type": "function"
    }
  ],
  "bytecode": "0x608060405234801561001057600080fd5b506100203361002560201b60201c565b610215565b61003d81600061007760201b6101181790919060201c565b7f2e0ded4123377a3c2bc9a26f1717655a129e2f20752924d42e730ec89c83dbd08160405161006c91906101fa565b60405180910390a150565b600073ffffffffffffffffffffffffffffffffffffffff168173ffffffffffffffffffffffffffffffffffffffff16036100b057600080fd5b6100c0828261012860201b60201c565b156100ca57600080fd5b60018260000160008373ffffffffffffffffffffffffffffffffffffffff1673ffffffffffffffffffffffffffffffffffffffff16815260200190815260200160002060006101000a81548160ff0219169083151502179055505050565b60008073ffffffffffffffffffffffffffffffffffffffff168273ffffffffffffffffffffffffffffffffffffffff160361016257600080fd5b8260000160008373ffffffffffffffffffffffffffffffffffffffff1673ffffffffffffffffffffffffffffffffffffffff16815260200190815260200160002060009054906101000a900460ff16905092915050565b600073ffffffffffffffffffffffffffffffffffffffff82169050919050565b60006101e4826101b9565b9050919050565b6101f4816101d9565b82525050565b600060208201905061020f60008301846101eb565b92915050565b61053d806102246000396000f3fe608060405234801561001057600080fd5b50600436106100415760003560e01c806380c3f96d1461004657806380fc0ce414610062578063b94290691461006c575b600080fd5b610060600480360381019061005b91906103fd565b61009c565b005b61006a6100f0565b005b610086600480360381019061008191906103fd565b6100fb565b6040516100939190610445565b60405180910390f35b6100a5336100fb565b6100e4576040517f08c379a00000000000000000000000000000000000000000000000000000000081526004016100db906104bd565b60405180910390fd5b6100ed816101c3565b50565b6100f933610211565b565b600061011182600061025f90919063ffffffff16565b9050919050565b600073ffffffffffffffffffffffffffffffffffffffff168173ffffffffffffffffffffffffffffffffffffffff160361015157600080fd5b61015b828261025f565b1561016557600080fd5b60018260000160008373ffffffffffffffffffffffffffffffffffffffff1673ffffffffffffffffffffffffffffffffffffffff16815260200190815260200160002060006101000a81548160ff0219169083151502179055505050565b6101d781600061011890919063ffffffff16565b7f2e0ded4123377a3c2bc9a26f1717655a129e2f20752924d42e730ec89c83dbd08160405161020691906104ec565b60405180910390a150565b6102258160006102f090919063ffffffff16565b7fa5e0f060af304ab17dd418c7927e3da3ae7868189bf387aee09ab179ccc572f28160405161025491906104ec565b60405180910390a150565b60008073ffffffffffffffffffffffffffffffffffffffff168273ffffffffffffffffffffffffffffffffffffffff160361029957600080fd5b8260000160008373ffffffffffffffffffffffffffffffffffffffff1673ffffffffffffffffffffffffffffffffffffffff16815260200190815260200160002060009054906101000a900460ff16905092915050565b600073ffffffffffffffffffffffffffffffffffffffff168173ffffffffffffffffffffffffffffffffffffffff160361032957600080fd5b610333828261025f565b61033c57600080fd5b60008260000160008373ffffffffffffffffffffffffffffffffffffffff1673ffffffffffffffffffffffffffffffffffffffff16815260200190815260200160002060006101000a81548160ff0219169083151502179055505050565b600080fd5b600073ffffffffffffffffffffffffffffffffffffffff82169050919050565b60006103ca8261039f565b9050919050565b6103da816103bf565b81146103e557600080fd5b50565b6000813590506103f7816103d1565b92915050565b6000602082840312156104135761041261039a565b5b6000610421848285016103e8565b91505092915050565b60008115159050919050565b61043f8161042a565b82525050565b600060208201905061045a6000830184610436565b92915050565b600082825260208201905092915050565b7f53656e646572206973206e6f7420612076616c6964204661726d657200000000600082015250565b60006104a7601c83610460565b91506104b282610471565b602082019050919050565b600060208201905081810360008301526104d68161049a565b9050919050565b6104e6816103bf565b82525050565b600060208201905061050160008301846104dd565b9291505056fea2646970667358221220641ded7edcf4ec2b7918191b1d6b4e59eee97583e1170a04996979c06c6c612b64736f6c63430008100033",
  "immutableReferences": {},
  "source": "// SPDX-License-Identifier: MIT\npragma solidity ^0.8.0;\n\n// Import the library 'Roles'\nimport \"./Roles.sol\";\n\n// Define a contract 'FarmerRole' to manage this role - add, remove, check\ncontract FarmerRole {\n  using Roles for Roles.Role;\n\n    /// @dev Define a struct 'farmers' by inheriting from 'Roles' library, struct Role\n    Roles.Role private _farmers;\n\n    /// @dev Event for Adding\n    /// @param farmers Address of the farmers added to the contract\n    event FarmerAdded (address farmers);\n\n    /// @dev Event for Removing\n    /// @param farmers Address of the farmers removed from the contract\n    event FarmerRemoved (address farmers); \n\n    // In the constructor make the address that deploys this contract the 1st farmer\n    constructor() {\n        _addFarmer(msg.sender);\n    }\n\n    // Define a modifier that checks to see if msg.sender has the appropriate role\n    modifier onlyFarmer() {\n        require(isFarmer(msg.sender), \"Sender is not a valid Farmer\");\n        _;\n    }\n\n    // Define a function 'isFarmer' to check this role\n    function isFarmer(address account) public view returns (bool) {\n        return _farmers.has(account);\n    }\n\n    // Define a function 'addFarmer' that adds this role\n    function addFarmer(address account) public onlyFarmer {\n        _addFarmer(account);\n    }\n\n    // Define a function 'renounceFarmer' to renounce this role\n    function renounceFarmer() public {\n        _removeFarmer(msg.sender);\n    }\n\n    // Define an internal function '_addFarmer' to add this role, called by 'addFarmer'\n    function _addFarmer(address account) internal {\n        _farmers.add(account);\n        emit FarmerAdded(account);\n    }\n\n    // Define an internal function '_removeFarmer' to remove this role, called by 'removeFarmer'\n    function _removeFarmer(address account) internal {\n        _farmers.remove(account);\n        emit FarmerRemoved(account);\n    }\n}",
  "sourcePath": "/home/isma/Desktop/code/blockchain/CoffeBeanChain/truffle/contracts/coffeeaccesscontrol/FarmerRole.sol",
  "compiler": {
    "name": "solc",
    "version": "0.8.16+commit.07a7930e.Emscripten.clang"
  },
  "schemaVersion": "3.4.9",
  "updatedAt": "2022-08-25T19:24:22.584Z",
  "networkType": "ethereum",
  "devdoc": {
    "events": {
      "FarmerAdded(address)": {
        "details": "Event for Adding",
        "params": {
          "farmers": "Address of the farmers added to the contract"
        }
      },
      "FarmerRemoved(address)": {
        "details": "Event for Removing",
        "params": {
          "farmers": "Address of the farmers removed from the contract"
        }
      }
    },
    "kind": "dev",
    "methods": {},
    "stateVariables": {
      "_farmers": {
        "details": "Define a struct 'farmers' by inheriting from 'Roles' library, struct Role"
      }
    },
    "version": 1
  },
  "userdoc": {
    "kind": "user",
    "methods": {},
    "version": 1
  }
}