{
  "contractName": "RetailerRole",
  "abi": [
    {
      "inputs": [],
      "stateMutability": "nonpayable",
      "type": "constructor"
    },
    {
      "anonymous": false,
      "inputs": [
        {
          "indexed": false,
          "internalType": "address",
          "name": "retailer",
          "type": "address"
        }
      ],
      "name": "RetailerAdded",
      "type": "event"
    },
    {
      "anonymous": false,
      "inputs": [
        {
          "indexed": false,
          "internalType": "address",
          "name": "retailer",
          "type": "address"
        }
      ],
      "name": "RetailerRemoved",
      "type": "event"
    },
    {
      "inputs": [
        {
          "internalType": "address",
          "name": "account",
          "type": "address"
        }
      ],
      "name": "isRetailer",
      "outputs": [
        {
          "internalType": "bool",
          "name": "",
          "type": "bool"
        }
      ],
      "stateMutability": "view",
      "type": "function",
      "constant": true
    },
    {
      "inputs": [
        {
          "internalType": "address",
          "name": "account",
          "type": "address"
        }
      ],
      "name": "addRetailer",
      "outputs": [],
      "stateMutability": "nonpayable",
      "type": "function"
    },
    {
      "inputs": [],
      "name": "renounceRetailer",
      "outputs": [],
      "stateMutability": "nonpayable",
      "type": "function"
    }
  ],
  "bytecode": "0x608060405234801561001057600080fd5b506100203361002560201b60201c565b610215565b61003d81600061007760201b6101181790919060201c565b7f71ae26cad02663e3d92efd6ec56031a80d74a20c0ab4183faa8bf262261c9baa8160405161006c91906101fa565b60405180910390a150565b600073ffffffffffffffffffffffffffffffffffffffff168173ffffffffffffffffffffffffffffffffffffffff16036100b057600080fd5b6100c0828261012860201b60201c565b156100ca57600080fd5b60018260000160008373ffffffffffffffffffffffffffffffffffffffff1673ffffffffffffffffffffffffffffffffffffffff16815260200190815260200160002060006101000a81548160ff0219169083151502179055505050565b60008073ffffffffffffffffffffffffffffffffffffffff168273ffffffffffffffffffffffffffffffffffffffff160361016257600080fd5b8260000160008373ffffffffffffffffffffffffffffffffffffffff1673ffffffffffffffffffffffffffffffffffffffff16815260200190815260200160002060009054906101000a900460ff16905092915050565b600073ffffffffffffffffffffffffffffffffffffffff82169050919050565b60006101e4826101b9565b9050919050565b6101f4816101d9565b82525050565b600060208201905061020f60008301846101eb565b92915050565b61053d806102246000396000f3fe608060405234801561001057600080fd5b50600436106100415760003560e01c80635da09b88146100465780638ec4f50514610076578063db0e6a2f14610092575b600080fd5b610060600480360381019061005b91906103fd565b61009c565b60405161006d9190610445565b60405180910390f35b610090600480360381019061008b91906103fd565b6100b9565b005b61009a61010d565b005b60006100b28260006101c390919063ffffffff16565b9050919050565b6100c23361009c565b610101576040517f08c379a00000000000000000000000000000000000000000000000000000000081526004016100f8906104bd565b60405180910390fd5b61010a81610254565b50565b610116336102a2565b565b600073ffffffffffffffffffffffffffffffffffffffff168173ffffffffffffffffffffffffffffffffffffffff160361015157600080fd5b61015b82826101c3565b1561016557600080fd5b60018260000160008373ffffffffffffffffffffffffffffffffffffffff1673ffffffffffffffffffffffffffffffffffffffff16815260200190815260200160002060006101000a81548160ff0219169083151502179055505050565b60008073ffffffffffffffffffffffffffffffffffffffff168273ffffffffffffffffffffffffffffffffffffffff16036101fd57600080fd5b8260000160008373ffffffffffffffffffffffffffffffffffffffff1673ffffffffffffffffffffffffffffffffffffffff16815260200190815260200160002060009054906101000a900460ff16905092915050565b61026881600061011890919063ffffffff16565b7f71ae26cad02663e3d92efd6ec56031a80d74a20c0ab4183faa8bf262261c9baa8160405161029791906104ec565b60405180910390a150565b6102b68160006102f090919063ffffffff16565b7fdb7176e79cffef81cb01767dd0447a0b24bb72ca9778d4b245581086b2a7e6db816040516102e591906104ec565b60405180910390a150565b600073ffffffffffffffffffffffffffffffffffffffff168173ffffffffffffffffffffffffffffffffffffffff160361032957600080fd5b61033382826101c3565b61033c57600080fd5b60008260000160008373ffffffffffffffffffffffffffffffffffffffff1673ffffffffffffffffffffffffffffffffffffffff16815260200190815260200160002060006101000a81548160ff0219169083151502179055505050565b600080fd5b600073ffffffffffffffffffffffffffffffffffffffff82169050919050565b60006103ca8261039f565b9050919050565b6103da816103bf565b81146103e557600080fd5b50565b6000813590506103f7816103d1565b92915050565b6000602082840312156104135761041261039a565b5b6000610421848285016103e8565b91505092915050565b60008115159050919050565b61043f8161042a565b82525050565b600060208201905061045a6000830184610436565b92915050565b600082825260208201905092915050565b7f53656e646572206973206e6f7420612076616c69642072657461696c65720000600082015250565b60006104a7601e83610460565b91506104b282610471565b602082019050919050565b600060208201905081810360008301526104d68161049a565b9050919050565b6104e6816103bf565b82525050565b600060208201905061050160008301846104dd565b9291505056fea2646970667358221220f6d265f83d64f3a776d4cf60b70244fec3277c92a84fa4fc1ad2fc877c9e695564736f6c63430008100033",
  "immutableReferences": {},
  "source": "// SPDX-License-Identifier: MIT\npragma solidity ^0.8.0;\n\n// Import the library 'Roles'\nimport \"./Roles.sol\";\n\n// Define a contract 'RetailerRole' to manage this role - add, remove, check\ncontract RetailerRole {\n    using Roles for Roles.Role;\n    \n    /// @dev Define a struct 'retailer' by inheriting from 'Roles' library, struct Role\n    Roles.Role private _retailers;\n\n    /// @dev Event for Adding\n    /// @param retailer Address of the retailer added to the contract\n    event RetailerAdded (address retailer);\n\n    /// @dev Event for Removing\n    /// @param retailer Address of the retailer removed from the contract\n    event RetailerRemoved (address retailer); \n\n    // In the constructor make the address that deploys this contract the 1st farmer\n    constructor() {\n        _addRetailer(msg.sender);\n    }\n\n    // Define a modifier that checks to see if msg.sender has the appropriate role\n    modifier onlyRetailer() {\n        require(isRetailer(msg.sender), \"Sender is not a valid retailer\");\n        _;\n    }\n\n    // Define a function 'isRetailer' to check this role\n    function isRetailer(address account) public view returns (bool) {\n        return _retailers.has(account);\n    }\n\n    // Define a function 'addRetailer' that adds this role\n    function addRetailer(address account) public onlyRetailer {\n        _addRetailer(account);\n    }\n\n    // Define a function 'renounceRetailer' to renounce this role\n    function renounceRetailer() public {\n        _removeRetailer(msg.sender);\n    }\n\n    // Define an internal function '_addRetailer' to add this role, called by 'addRetailer'\n    function _addRetailer(address account) internal {\n        _retailers.add(account);\n        emit RetailerAdded(account);\n    }\n\n    // Define an internal function '_removeRetailer' to remove this role, called by 'removeRetailer'\n    function _removeRetailer(address account) internal {\n        _retailers.remove(account);\n        emit RetailerRemoved(account);\n    }\n}",
  "sourcePath": "/home/isma/Desktop/code/blockchain/CoffeBeanChain/truffle/contracts/coffeeaccesscontrol/RetailerRole.sol",
  "compiler": {
    "name": "solc",
    "version": "0.8.16+commit.07a7930e.Emscripten.clang"
  },
  "schemaVersion": "3.4.9",
  "updatedAt": "2022-08-26T15:23:47.412Z",
  "networkType": "ethereum",
  "devdoc": {
    "events": {
      "RetailerAdded(address)": {
        "details": "Event for Adding",
        "params": {
          "retailer": "Address of the retailer added to the contract"
        }
      },
      "RetailerRemoved(address)": {
        "details": "Event for Removing",
        "params": {
          "retailer": "Address of the retailer removed from the contract"
        }
      }
    },
    "kind": "dev",
    "methods": {},
    "stateVariables": {
      "_retailers": {
        "details": "Define a struct 'retailer' by inheriting from 'Roles' library, struct Role"
      }
    },
    "version": 1
  },
  "userdoc": {
    "kind": "user",
    "methods": {},
    "version": 1
  }
}