{
  "contractName": "SupplyChain",
  "abi": [
    {
      "inputs": [],
      "stateMutability": "payable",
      "type": "constructor",
      "payable": true
    },
    {
      "anonymous": false,
      "inputs": [
        {
          "indexed": false,
          "internalType": "address",
          "name": "consumer",
          "type": "address"
        }
      ],
      "name": "ConsumerAdded",
      "type": "event"
    },
    {
      "anonymous": false,
      "inputs": [
        {
          "indexed": false,
          "internalType": "address",
          "name": "consumer",
          "type": "address"
        }
      ],
      "name": "ConsumerRemoved",
      "type": "event"
    },
    {
      "anonymous": false,
      "inputs": [
        {
          "indexed": false,
          "internalType": "address",
          "name": "distributor",
          "type": "address"
        }
      ],
      "name": "DistributorAdded",
      "type": "event"
    },
    {
      "anonymous": false,
      "inputs": [
        {
          "indexed": false,
          "internalType": "address",
          "name": "distributor",
          "type": "address"
        }
      ],
      "name": "DistributorRemoved",
      "type": "event"
    },
    {
      "anonymous": false,
      "inputs": [
        {
          "indexed": false,
          "internalType": "address",
          "name": "farmers",
          "type": "address"
        }
      ],
      "name": "FarmerAdded",
      "type": "event"
    },
    {
      "anonymous": false,
      "inputs": [
        {
          "indexed": false,
          "internalType": "address",
          "name": "farmers",
          "type": "address"
        }
      ],
      "name": "FarmerRemoved",
      "type": "event"
    },
    {
      "anonymous": false,
      "inputs": [
        {
          "indexed": false,
          "internalType": "uint256",
          "name": "upc",
          "type": "uint256"
        }
      ],
      "name": "ForSale",
      "type": "event"
    },
    {
      "anonymous": false,
      "inputs": [
        {
          "indexed": false,
          "internalType": "uint256",
          "name": "upc",
          "type": "uint256"
        }
      ],
      "name": "Harvested",
      "type": "event"
    },
    {
      "anonymous": false,
      "inputs": [
        {
          "indexed": false,
          "internalType": "uint256",
          "name": "upc",
          "type": "uint256"
        }
      ],
      "name": "Packed",
      "type": "event"
    },
    {
      "anonymous": false,
      "inputs": [
        {
          "indexed": false,
          "internalType": "uint256",
          "name": "upc",
          "type": "uint256"
        }
      ],
      "name": "Processed",
      "type": "event"
    },
    {
      "anonymous": false,
      "inputs": [
        {
          "indexed": false,
          "internalType": "uint256",
          "name": "upc",
          "type": "uint256"
        }
      ],
      "name": "Purchased",
      "type": "event"
    },
    {
      "anonymous": false,
      "inputs": [
        {
          "indexed": false,
          "internalType": "uint256",
          "name": "upc",
          "type": "uint256"
        }
      ],
      "name": "Received",
      "type": "event"
    },
    {
      "anonymous": false,
      "inputs": [
        {
          "indexed": false,
          "internalType": "address",
          "name": "retailer",
          "type": "address"
        }
      ],
      "name": "RetailerAdded",
      "type": "event"
    },
    {
      "anonymous": false,
      "inputs": [
        {
          "indexed": false,
          "internalType": "address",
          "name": "retailer",
          "type": "address"
        }
      ],
      "name": "RetailerRemoved",
      "type": "event"
    },
    {
      "anonymous": false,
      "inputs": [
        {
          "indexed": false,
          "internalType": "uint256",
          "name": "upc",
          "type": "uint256"
        }
      ],
      "name": "Shipped",
      "type": "event"
    },
    {
      "anonymous": false,
      "inputs": [
        {
          "indexed": false,
          "internalType": "uint256",
          "name": "upc",
          "type": "uint256"
        }
      ],
      "name": "Sold",
      "type": "event"
    },
    {
      "anonymous": false,
      "inputs": [
        {
          "indexed": true,
          "internalType": "address",
          "name": "oldOwner",
          "type": "address"
        },
        {
          "indexed": true,
          "internalType": "address",
          "name": "newOwner",
          "type": "address"
        }
      ],
      "name": "TransferOwnership",
      "type": "event"
    },
    {
      "inputs": [
        {
          "internalType": "address",
          "name": "account",
          "type": "address"
        }
      ],
      "name": "addConsumer",
      "outputs": [],
      "stateMutability": "nonpayable",
      "type": "function"
    },
    {
      "inputs": [
        {
          "internalType": "address",
          "name": "account",
          "type": "address"
        }
      ],
      "name": "addDistributor",
      "outputs": [],
      "stateMutability": "nonpayable",
      "type": "function"
    },
    {
      "inputs": [
        {
          "internalType": "address",
          "name": "account",
          "type": "address"
        }
      ],
      "name": "addFarmer",
      "outputs": [],
      "stateMutability": "nonpayable",
      "type": "function"
    },
    {
      "inputs": [
        {
          "internalType": "address",
          "name": "account",
          "type": "address"
        }
      ],
      "name": "addRetailer",
      "outputs": [],
      "stateMutability": "nonpayable",
      "type": "function"
    },
    {
      "inputs": [
        {
          "internalType": "address",
          "name": "account",
          "type": "address"
        }
      ],
      "name": "isConsumer",
      "outputs": [
        {
          "internalType": "bool",
          "name": "",
          "type": "bool"
        }
      ],
      "stateMutability": "view",
      "type": "function",
      "constant": true
    },
    {
      "inputs": [
        {
          "internalType": "address",
          "name": "account",
          "type": "address"
        }
      ],
      "name": "isDistributor",
      "outputs": [
        {
          "internalType": "bool",
          "name": "",
          "type": "bool"
        }
      ],
      "stateMutability": "view",
      "type": "function",
      "constant": true
    },
    {
      "inputs": [
        {
          "internalType": "address",
          "name": "account",
          "type": "address"
        }
      ],
      "name": "isFarmer",
      "outputs": [
        {
          "internalType": "bool",
          "name": "",
          "type": "bool"
        }
      ],
      "stateMutability": "view",
      "type": "function",
      "constant": true
    },
    {
      "inputs": [],
      "name": "isOwner",
      "outputs": [
        {
          "internalType": "bool",
          "name": "",
          "type": "bool"
        }
      ],
      "stateMutability": "view",
      "type": "function",
      "constant": true
    },
    {
      "inputs": [
        {
          "internalType": "address",
          "name": "account",
          "type": "address"
        }
      ],
      "name": "isRetailer",
      "outputs": [
        {
          "internalType": "bool",
          "name": "",
          "type": "bool"
        }
      ],
      "stateMutability": "view",
      "type": "function",
      "constant": true
    },
    {
      "inputs": [],
      "name": "owner",
      "outputs": [
        {
          "internalType": "address",
          "name": "",
          "type": "address"
        }
      ],
      "stateMutability": "view",
      "type": "function",
      "constant": true
    },
    {
      "inputs": [],
      "name": "renounceConsumer",
      "outputs": [],
      "stateMutability": "nonpayable",
      "type": "function"
    },
    {
      "inputs": [],
      "name": "renounceDistributor",
      "outputs": [],
      "stateMutability": "nonpayable",
      "type": "function"
    },
    {
      "inputs": [],
      "name": "renounceFarmer",
      "outputs": [],
      "stateMutability": "nonpayable",
      "type": "function"
    },
    {
      "inputs": [],
      "name": "renounceOwnership",
      "outputs": [],
      "stateMutability": "nonpayable",
      "type": "function"
    },
    {
      "inputs": [],
      "name": "renounceRetailer",
      "outputs": [],
      "stateMutability": "nonpayable",
      "type": "function"
    },
    {
      "inputs": [
        {
          "internalType": "address",
          "name": "newOwner",
          "type": "address"
        }
      ],
      "name": "transferOwnership",
      "outputs": [],
      "stateMutability": "nonpayable",
      "type": "function"
    },
    {
      "inputs": [],
      "name": "kill",
      "outputs": [],
      "stateMutability": "nonpayable",
      "type": "function"
    },
    {
      "inputs": [
        {
          "internalType": "uint256",
          "name": "_upc",
          "type": "uint256"
        },
        {
          "internalType": "address",
          "name": "_originFarmerID",
          "type": "address"
        },
        {
          "internalType": "string",
          "name": "_originFarmName",
          "type": "string"
        },
        {
          "internalType": "string",
          "name": "_originFarmInformation",
          "type": "string"
        },
        {
          "internalType": "string",
          "name": "_originFarmLatitude",
          "type": "string"
        },
        {
          "internalType": "string",
          "name": "_originFarmLongitude",
          "type": "string"
        },
        {
          "internalType": "string",
          "name": "_productNotes",
          "type": "string"
        }
      ],
      "name": "harvestItem",
      "outputs": [],
      "stateMutability": "nonpayable",
      "type": "function"
    },
    {
      "inputs": [
        {
          "internalType": "uint256",
          "name": "_upc",
          "type": "uint256"
        }
      ],
      "name": "processItem",
      "outputs": [],
      "stateMutability": "nonpayable",
      "type": "function"
    },
    {
      "inputs": [
        {
          "internalType": "uint256",
          "name": "_upc",
          "type": "uint256"
        }
      ],
      "name": "packItem",
      "outputs": [],
      "stateMutability": "nonpayable",
      "type": "function"
    },
    {
      "inputs": [
        {
          "internalType": "uint256",
          "name": "_upc",
          "type": "uint256"
        },
        {
          "internalType": "uint256",
          "name": "_units",
          "type": "uint256"
        }
      ],
      "name": "addItem",
      "outputs": [],
      "stateMutability": "nonpayable",
      "type": "function"
    },
    {
      "inputs": [
        {
          "internalType": "uint256",
          "name": "_upc",
          "type": "uint256"
        },
        {
          "internalType": "uint256",
          "name": "_price",
          "type": "uint256"
        }
      ],
      "name": "putForSale",
      "outputs": [],
      "stateMutability": "nonpayable",
      "type": "function"
    },
    {
      "inputs": [
        {
          "internalType": "uint256",
          "name": "_upc",
          "type": "uint256"
        }
      ],
      "name": "buyItem",
      "outputs": [],
      "stateMutability": "payable",
      "type": "function",
      "payable": true
    },
    {
      "inputs": [
        {
          "internalType": "uint256",
          "name": "_upc",
          "type": "uint256"
        }
      ],
      "name": "shipItem",
      "outputs": [],
      "stateMutability": "nonpayable",
      "type": "function"
    },
    {
      "inputs": [
        {
          "internalType": "uint256",
          "name": "_upc",
          "type": "uint256"
        }
      ],
      "name": "receiveItem",
      "outputs": [],
      "stateMutability": "nonpayable",
      "type": "function"
    },
    {
      "inputs": [
        {
          "internalType": "uint256",
          "name": "_upc",
          "type": "uint256"
        }
      ],
      "name": "purchaseItem",
      "outputs": [],
      "stateMutability": "nonpayable",
      "type": "function"
    },
    {
      "inputs": [
        {
          "internalType": "uint256",
          "name": "_upc",
          "type": "uint256"
        }
      ],
      "name": "fetchItemBufferOne",
      "outputs": [
        {
          "internalType": "uint256",
          "name": "itemSKU",
          "type": "uint256"
        },
        {
          "internalType": "uint256",
          "name": "itemUPC",
          "type": "uint256"
        },
        {
          "internalType": "address",
          "name": "ownerID",
          "type": "address"
        },
        {
          "internalType": "address",
          "name": "originFarmerID",
          "type": "address"
        },
        {
          "internalType": "string",
          "name": "originFarmName",
          "type": "string"
        },
        {
          "internalType": "string",
          "name": "originFarmInformation",
          "type": "string"
        },
        {
          "internalType": "string",
          "name": "originFarmLatitude",
          "type": "string"
        },
        {
          "internalType": "string",
          "name": "originFarmLongitude",
          "type": "string"
        }
      ],
      "stateMutability": "view",
      "type": "function",
      "constant": true
    },
    {
      "inputs": [
        {
          "internalType": "uint256",
          "name": "_upc",
          "type": "uint256"
        }
      ],
      "name": "fetchItemBufferTwo",
      "outputs": [
        {
          "internalType": "uint256",
          "name": "itemSKU",
          "type": "uint256"
        },
        {
          "internalType": "uint256",
          "name": "itemUPC",
          "type": "uint256"
        },
        {
          "internalType": "uint256",
          "name": "productID",
          "type": "uint256"
        },
        {
          "internalType": "string",
          "name": "productNotes",
          "type": "string"
        },
        {
          "internalType": "uint256",
          "name": "productPrice",
          "type": "uint256"
        },
        {
          "internalType": "uint256",
          "name": "itemState",
          "type": "uint256"
        },
        {
          "internalType": "address",
          "name": "distributorID",
          "type": "address"
        },
        {
          "internalType": "address",
          "name": "retailerID",
          "type": "address"
        },
        {
          "internalType": "address",
          "name": "consumerID",
          "type": "address"
        }
      ],
      "stateMutability": "view",
      "type": "function",
      "constant": true
    }
  ],
  "bytecode": "0x608060405262000015336200011c60201b60201c565b62000026336200017360201b60201c565b6200003733620001ca60201b60201c565b62000048336200022160201b60201c565b33600460006101000a81548173ffffffffffffffffffffffffffffffffffffffff021916908373ffffffffffffffffffffffffffffffffffffffff160217905550600460009054906101000a900473ffffffffffffffffffffffffffffffffffffffff1673ffffffffffffffffffffffffffffffffffffffff16600073ffffffffffffffffffffffffffffffffffffffff167f5c486528ec3e3f0ea91181cff8116f02bfa350e03b8b6f12e00765adbb5af85c60405160405180910390a36001600681905550600160058190555062000421565b620001378160006200027860201b62001fe91790919060201c565b7fddbf200aa634dc3fb81cfd68583dd1040d1c751d335e1d86b631bde3e977fea88160405162000168919062000404565b60405180910390a150565b6200018e8160016200027860201b62001fe91790919060201c565b7f28b26e7a3d20aedbc5f8f2ebf7da671c0491723a2b78f47a097b0e46dee0714281604051620001bf919062000404565b60405180910390a150565b620001e58160026200027860201b62001fe91790919060201c565b7f71ae26cad02663e3d92efd6ec56031a80d74a20c0ab4183faa8bf262261c9baa8160405162000216919062000404565b60405180910390a150565b6200023c8160036200027860201b62001fe91790919060201c565b7f2e0ded4123377a3c2bc9a26f1717655a129e2f20752924d42e730ec89c83dbd0816040516200026d919062000404565b60405180910390a150565b600073ffffffffffffffffffffffffffffffffffffffff168173ffffffffffffffffffffffffffffffffffffffff1603620002b257600080fd5b620002c482826200032d60201b60201c565b15620002cf57600080fd5b60018260000160008373ffffffffffffffffffffffffffffffffffffffff1673ffffffffffffffffffffffffffffffffffffffff16815260200190815260200160002060006101000a81548160ff0219169083151502179055505050565b60008073ffffffffffffffffffffffffffffffffffffffff168273ffffffffffffffffffffffffffffffffffffffff16036200036857600080fd5b8260000160008373ffffffffffffffffffffffffffffffffffffffff1673ffffffffffffffffffffffffffffffffffffffff16815260200190815260200160002060009054906101000a900460ff16905092915050565b600073ffffffffffffffffffffffffffffffffffffffff82169050919050565b6000620003ec82620003bf565b9050919050565b620003fe81620003df565b82525050565b60006020820190506200041b6000830184620003f3565b92915050565b61321980620004316000396000f3fe6080604052600436106101b75760003560e01c80638da5cb5b116100ec578063bdd8a6a81161008a578063e7fb74c711610064578063e7fb74c7146105b3578063f2fde38b146105cf578063f30fc480146105f8578063f61c899a14610621576101b7565b8063bdd8a6a81461054a578063d38ea5bf14610573578063db0e6a2f1461059c576101b7565b80638f32d59b116100c65780638f32d59b14610490578063a2125232146104bb578063a26be999146104e4578063b94290691461050d576101b7565b80638da5cb5b146103ff5780638ec4f5051461042a5780638f0c86fa14610453576101b7565b806366225ff91161015957806377c459131161013357806377c459131461033e57806380c3f96d1461038257806380fc0ce4146103ab578063834ff739146103c2576101b7565b806366225ff9146102b9578063715018a6146102fe5780637250e22414610315576101b7565b806349dae7661161019557806349dae766146102255780635da09b881461024e57806361e6982d1461028b578063644241db146102a2576101b7565b8063112940f9146101bc5780633cd76be2146101e557806341c0e1b51461020e575b600080fd5b3480156101c857600080fd5b506101e360048036038101906101de91906125aa565b61064a565b005b3480156101f157600080fd5b5061020c6004803603810190610207919061260d565b61069e565b005b34801561021a57600080fd5b506102236107d1565b005b34801561023157600080fd5b5061024c6004803603810190610247919061264d565b610802565b005b34801561025a57600080fd5b50610275600480360381019061027091906125aa565b610919565b6040516102829190612695565b60405180910390f35b34801561029757600080fd5b506102a0610936565b005b3480156102ae57600080fd5b506102b7610941565b005b3480156102c557600080fd5b506102e060048036038101906102db919061264d565b61094c565b6040516102f59998979695949392919061275e565b60405180910390f35b34801561030a57600080fd5b50610313610b50565b005b34801561032157600080fd5b5061033c600480360381019061033791906125aa565b610c22565b005b34801561034a57600080fd5b506103656004803603810190610360919061264d565b610c76565b6040516103799897969594939291906127f2565b60405180910390f35b34801561038e57600080fd5b506103a960048036038101906103a491906125aa565b610fb5565b005b3480156103b757600080fd5b506103c0611009565b005b3480156103ce57600080fd5b506103e960048036038101906103e491906125aa565b611014565b6040516103f69190612695565b60405180910390f35b34801561040b57600080fd5b50610414611031565b604051610421919061288c565b60405180910390f35b34801561043657600080fd5b50610451600480360381019061044c91906125aa565b61105b565b005b34801561045f57600080fd5b5061047a600480360381019061047591906125aa565b6110af565b6040516104879190612695565b60405180910390f35b34801561049c57600080fd5b506104a56110cc565b6040516104b29190612695565b60405180910390f35b3480156104c757600080fd5b506104e260048036038101906104dd919061260d565b611124565b005b3480156104f057600080fd5b5061050b6004803603810190610506919061264d565b61122a565b005b34801561051957600080fd5b50610534600480360381019061052f91906125aa565b6113eb565b6040516105419190612695565b60405180910390f35b34801561055657600080fd5b50610571600480360381019061056c91906129dc565b611408565b005b34801561057f57600080fd5b5061059a6004803603810190610595919061264d565b61183b565b005b3480156105a857600080fd5b506105b16119fb565b005b6105cd60048036038101906105c8919061264d565b611a06565b005b3480156105db57600080fd5b506105f660048036038101906105f191906125aa565b611d9e565b005b34801561060457600080fd5b5061061f600480360381019061061a919061264d565b611dbb565b005b34801561062d57600080fd5b506106486004803603810190610643919061264d565b611ed2565b005b61065333611014565b610692576040517f08c379a000000000000000000000000000000000000000000000000000000000815260040161068990612b56565b60405180910390fd5b61069b81612094565b50565b6106a7336113eb565b6106e6576040517f08c379a00000000000000000000000000000000000000000000000000000000081526004016106dd90612bc2565b60405180910390fd5b81600260078111156106fb576106fa612be2565b5b60076000838152602001908152602001600020600b0160009054906101000a900460ff16600781111561073157610730612be2565b5b1461073b57600080fd5b600360076000858152602001908152602001600020600b0160006101000a81548160ff0219169083600781111561077557610774612be2565b5b02179055508160076000858152602001908152602001600020600a01819055507fa96ae0fc3224ebd79eebfe54bd130cc9cb94416cddd1f2386115e00b72532468836040516107c49190612c11565b60405180910390a1505050565b6107d96110cc565b6107e257600080fd5b6107ea611031565b73ffffffffffffffffffffffffffffffffffffffff16ff5b61080b336113eb565b61084a576040517f08c379a000000000000000000000000000000000000000000000000000000000815260040161084190612bc2565b60405180910390fd5b806000600781111561085f5761085e612be2565b5b60076000838152602001908152602001600020600b0160009054906101000a900460ff16600781111561089557610894612be2565b5b1461089f57600080fd5b600160076000848152602001908152602001600020600b0160006101000a81548160ff021916908360078111156108d9576108d8612be2565b5b02179055507f5afe3b1bf87069693c075da5c22a98d63d1aef98a30dbbe538d0781a98b77ee58260405161090d9190612c11565b60405180910390a15050565b600061092f8260026120e290919063ffffffff16565b9050919050565b61093f33612173565b565b61094a336121c1565b565b600080600060606000806000806000600760008b8152602001908152602001600020600001549850600760008b8152602001908152602001600020600101549750600760008b8152602001908152602001600020600801549650600760008b815260200190815260200160002060090180546109c790612c5b565b80601f01602080910402602001604051908101604052809291908181526020018280546109f390612c5b565b8015610a405780601f10610a1557610100808354040283529160200191610a40565b820191906000526020600020905b815481529060010190602001808311610a2357829003601f168201915b50505050509550600760008b8152602001908152602001600020600a01549450600760008b8152602001908152602001600020600b0160009054906101000a900460ff166007811115610a9657610a95612be2565b5b9350600760008b8152602001908152602001600020600b0160019054906101000a900473ffffffffffffffffffffffffffffffffffffffff169250600760008b8152602001908152602001600020600c0160009054906101000a900473ffffffffffffffffffffffffffffffffffffffff169150600760008b8152602001908152602001600020600d0160009054906101000a900473ffffffffffffffffffffffffffffffffffffffff1690509193959799909294969850565b610b586110cc565b610b6157600080fd5b600073ffffffffffffffffffffffffffffffffffffffff16600460009054906101000a900473ffffffffffffffffffffffffffffffffffffffff1673ffffffffffffffffffffffffffffffffffffffff167f5c486528ec3e3f0ea91181cff8116f02bfa350e03b8b6f12e00765adbb5af85c60405160405180910390a36000600460006101000a81548173ffffffffffffffffffffffffffffffffffffffff021916908373ffffffffffffffffffffffffffffffffffffffff160217905550565b610c2b336110af565b610c6a576040517f08c379a0000000000000000000000000000000000000000000000000000000008152600401610c6190612cfe565b60405180910390fd5b610c738161220f565b50565b600080600080606080606080600760008a8152602001908152602001600020600001549750600760008a8152602001908152602001600020600101549650600760008a815260200190815260200160002060020160009054906101000a900473ffffffffffffffffffffffffffffffffffffffff169550600760008a815260200190815260200160002060030160009054906101000a900473ffffffffffffffffffffffffffffffffffffffff169450600760008a81526020019081526020016000206004018054610d4790612c5b565b80601f0160208091040260200160405190810160405280929190818152602001828054610d7390612c5b565b8015610dc05780601f10610d9557610100808354040283529160200191610dc0565b820191906000526020600020905b815481529060010190602001808311610da357829003601f168201915b50505050509350600760008a81526020019081526020016000206005018054610de890612c5b565b80601f0160208091040260200160405190810160405280929190818152602001828054610e1490612c5b565b8015610e615780601f10610e3657610100808354040283529160200191610e61565b820191906000526020600020905b815481529060010190602001808311610e4457829003601f168201915b50505050509250600760008a81526020019081526020016000206006018054610e8990612c5b565b80601f0160208091040260200160405190810160405280929190818152602001828054610eb590612c5b565b8015610f025780601f10610ed757610100808354040283529160200191610f02565b820191906000526020600020905b815481529060010190602001808311610ee557829003601f168201915b50505050509150600760008a81526020019081526020016000206007018054610f2a90612c5b565b80601f0160208091040260200160405190810160405280929190818152602001828054610f5690612c5b565b8015610fa35780601f10610f7857610100808354040283529160200191610fa3565b820191906000526020600020905b815481529060010190602001808311610f8657829003601f168201915b50505050509050919395975091939597565b610fbe336113eb565b610ffd576040517f08c379a0000000000000000000000000000000000000000000000000000000008152600401610ff490612bc2565b60405180910390fd5b6110068161225d565b50565b611012336122ab565b565b600061102a8260016120e290919063ffffffff16565b9050919050565b6000600460009054906101000a900473ffffffffffffffffffffffffffffffffffffffff16905090565b61106433610919565b6110a3576040517f08c379a000000000000000000000000000000000000000000000000000000000815260040161109a90612d6a565b60405180910390fd5b6110ac816122f9565b50565b60006110c58260006120e290919063ffffffff16565b9050919050565b6000600460009054906101000a900473ffffffffffffffffffffffffffffffffffffffff1673ffffffffffffffffffffffffffffffffffffffff163373ffffffffffffffffffffffffffffffffffffffff1614905090565b61112d336113eb565b61116c576040517f08c379a000000000000000000000000000000000000000000000000000000000815260040161116390612bc2565b60405180910390fd5b816002600781111561118157611180612be2565b5b60076000838152602001908152602001600020600b0160009054906101000a900460ff1660078111156111b7576111b6612be2565b5b146111c157600080fd5b816007600085815260200190815260200160002060000160008282546111e79190612db9565b925050819055507f9b3b66e2380b690bae22c73ef1428fb0c91e72fe14a4b6defa13035214187aff8360405161121d9190612c11565b60405180910390a1505050565b61123333610919565b611272576040517f08c379a000000000000000000000000000000000000000000000000000000000815260040161126990612d6a565b60405180910390fd5b806005600781111561128757611286612be2565b5b60076000838152602001908152602001600020600b0160009054906101000a900460ff1660078111156112bd576112bc612be2565b5b146112c757600080fd5b336007600084815260200190815260200160002060020160006101000a81548173ffffffffffffffffffffffffffffffffffffffff021916908373ffffffffffffffffffffffffffffffffffffffff1602179055503360076000848152602001908152602001600020600c0160006101000a81548173ffffffffffffffffffffffffffffffffffffffff021916908373ffffffffffffffffffffffffffffffffffffffff160217905550600660076000848152602001908152602001600020600b0160006101000a81548160ff021916908360078111156113ab576113aa612be2565b5b02179055507fa8142743f8f70a4c26f3691cf4ed59718381fb2f18070ec52be1f1022d855557826040516113df9190612c11565b60405180910390a15050565b60006114018260036120e290919063ffffffff16565b9050919050565b611411336113eb565b611450576040517f08c379a000000000000000000000000000000000000000000000000000000000815260040161144790612bc2565b60405180910390fd5b60006007600089815260200190815260200160002060010154146114a9576040517f08c379a00000000000000000000000000000000000000000000000000000000081526004016114a090612e5f565b60405180910390fd5b604051806101e00160405280600181526020018881526020013373ffffffffffffffffffffffffffffffffffffffff1681526020018773ffffffffffffffffffffffffffffffffffffffff168152602001868152602001858152602001848152602001838152602001600654896115209190612db9565b8152602001828152602001600081526020016000600781111561154657611545612be2565b5b8152602001600073ffffffffffffffffffffffffffffffffffffffff168152602001600073ffffffffffffffffffffffffffffffffffffffff168152602001600073ffffffffffffffffffffffffffffffffffffffff1681525060076000898152602001908152602001600020600082015181600001556020820151816001015560408201518160020160006101000a81548173ffffffffffffffffffffffffffffffffffffffff021916908373ffffffffffffffffffffffffffffffffffffffff16021790555060608201518160030160006101000a81548173ffffffffffffffffffffffffffffffffffffffff021916908373ffffffffffffffffffffffffffffffffffffffff160217905550608082015181600401908161166a919061302b565b5060a0820151816005019081611680919061302b565b5060c0820151816006019081611696919061302b565b5060e08201518160070190816116ac919061302b565b5061010082015181600801556101208201518160090190816116ce919061302b565b5061014082015181600a015561016082015181600b0160006101000a81548160ff0219169083600781111561170657611705612be2565b5b021790555061018082015181600b0160016101000a81548173ffffffffffffffffffffffffffffffffffffffff021916908373ffffffffffffffffffffffffffffffffffffffff1602179055506101a082015181600c0160006101000a81548173ffffffffffffffffffffffffffffffffffffffff021916908373ffffffffffffffffffffffffffffffffffffffff1602179055506101c082015181600d0160006101000a81548173ffffffffffffffffffffffffffffffffffffffff021916908373ffffffffffffffffffffffffffffffffffffffff16021790555090505060016006546117f59190612db9565b6006819055507f8e55ccfc9778ff8eba1646d765cf1982537ce0f9257054a17b48aad7452501838760405161182a9190612c11565b60405180910390a150505050505050565b61184433611014565b611883576040517f08c379a000000000000000000000000000000000000000000000000000000000815260040161187a90612b56565b60405180910390fd5b806006600781111561189857611897612be2565b5b60076000838152602001908152602001600020600b0160009054906101000a900460ff1660078111156118ce576118cd612be2565b5b146118d857600080fd5b336007600084815260200190815260200160002060020160006101000a81548173ffffffffffffffffffffffffffffffffffffffff021916908373ffffffffffffffffffffffffffffffffffffffff1602179055503360076000848152602001908152602001600020600d0160006101000a81548173ffffffffffffffffffffffffffffffffffffffff021916908373ffffffffffffffffffffffffffffffffffffffff1602179055506007806000848152602001908152602001600020600b0160006101000a81548160ff021916908360078111156119bb576119ba612be2565b5b02179055507f653d56639fee6b566a5c804764e9689de38645f0b733df89a36a1b7b42173dd8826040516119ef9190612c11565b60405180910390a15050565b611a0433612347565b565b611a0f336110af565b611a4e576040517f08c379a0000000000000000000000000000000000000000000000000000000008152600401611a4590612cfe565b60405180910390fd5b8060036007811115611a6357611a62612be2565b5b60076000838152602001908152602001600020600b0160009054906101000a900460ff166007811115611a9957611a98612be2565b5b14611aa357600080fd5b60076000838152602001908152602001600020600a015480341015611ac757600080fd5b8260076000828152602001908152602001600020600a0154341015611aeb57600080fd5b60006007600086815260200190815260200160002060030160009054906101000a900473ffffffffffffffffffffffffffffffffffffffff1673ffffffffffffffffffffffffffffffffffffffff1634604051611b479061312e565b60006040518083038185875af1925050503d8060008114611b84576040519150601f19603f3d011682016040523d82523d6000602084013e611b89565b606091505b5050905080611bcd576040517f08c379a0000000000000000000000000000000000000000000000000000000008152600401611bc49061318f565b60405180910390fd5b336007600087815260200190815260200160002060020160006101000a81548173ffffffffffffffffffffffffffffffffffffffff021916908373ffffffffffffffffffffffffffffffffffffffff1602179055503360076000878152602001908152602001600020600b0160016101000a81548173ffffffffffffffffffffffffffffffffffffffff021916908373ffffffffffffffffffffffffffffffffffffffff160217905550600460076000878152602001908152602001600020600b0160006101000a81548160ff02191690836007811115611cb157611cb0612be2565b5b02179055507f92f64ca637d023f354075a4be751b169c1a8a9ccb6d33cdd0cb352054399572785604051611ce59190612c11565b60405180910390a150600060076000838152602001908152602001600020600a0154905060008134611d1791906131af565b905060076000848152602001908152602001600020600d0160009054906101000a900473ffffffffffffffffffffffffffffffffffffffff1673ffffffffffffffffffffffffffffffffffffffff166108fc829081150290604051600060405180830381858888f19350505050158015611d95573d6000803e3d6000fd5b50505050505050565b611da66110cc565b611daf57600080fd5b611db881612395565b50565b611dc4336113eb565b611e03576040517f08c379a0000000000000000000000000000000000000000000000000000000008152600401611dfa90612bc2565b60405180910390fd5b8060016007811115611e1857611e17612be2565b5b60076000838152602001908152602001600020600b0160009054906101000a900460ff166007811115611e4e57611e4d612be2565b5b14611e5857600080fd5b600260076000848152602001908152602001600020600b0160006101000a81548160ff02191690836007811115611e9257611e91612be2565b5b02179055507f9b3b66e2380b690bae22c73ef1428fb0c91e72fe14a4b6defa13035214187aff82604051611ec69190612c11565b60405180910390a15050565b611edb336110af565b611f1a576040517f08c379a0000000000000000000000000000000000000000000000000000000008152600401611f1190612cfe565b60405180910390fd5b8060046007811115611f2f57611f2e612be2565b5b60076000838152602001908152602001600020600b0160009054906101000a900460ff166007811115611f6557611f64612be2565b5b14611f6f57600080fd5b600560076000848152602001908152602001600020600b0160006101000a81548160ff02191690836007811115611fa957611fa8612be2565b5b02179055507ff00b9a5725b80c54016f42114f6ed7792d22eecb116011c4afac29c57bef6c9582604051611fdd9190612c11565b60405180910390a15050565b600073ffffffffffffffffffffffffffffffffffffffff168173ffffffffffffffffffffffffffffffffffffffff160361202257600080fd5b61202c82826120e2565b1561203657600080fd5b60018260000160008373ffffffffffffffffffffffffffffffffffffffff1673ffffffffffffffffffffffffffffffffffffffff16815260200190815260200160002060006101000a81548160ff0219169083151502179055505050565b6120a8816001611fe990919063ffffffff16565b7f28b26e7a3d20aedbc5f8f2ebf7da671c0491723a2b78f47a097b0e46dee07142816040516120d7919061288c565b60405180910390a150565b60008073ffffffffffffffffffffffffffffffffffffffff168273ffffffffffffffffffffffffffffffffffffffff160361211c57600080fd5b8260000160008373ffffffffffffffffffffffffffffffffffffffff1673ffffffffffffffffffffffffffffffffffffffff16815260200190815260200160002060009054906101000a900460ff16905092915050565b61218781600161248e90919063ffffffff16565b7fe3f5ed5f263f1f01764a96edfc7d025f511ec5f7d180e8816908b78bcf74f098816040516121b6919061288c565b60405180910390a150565b6121d581600061248e90919063ffffffff16565b7f126174f6cf49c81cdb4a9214c6b8f037bef55b4ec31e4fc776cea2a1c8a88d5981604051612204919061288c565b60405180910390a150565b612223816000611fe990919063ffffffff16565b7fddbf200aa634dc3fb81cfd68583dd1040d1c751d335e1d86b631bde3e977fea881604051612252919061288c565b60405180910390a150565b612271816003611fe990919063ffffffff16565b7f2e0ded4123377a3c2bc9a26f1717655a129e2f20752924d42e730ec89c83dbd0816040516122a0919061288c565b60405180910390a150565b6122bf81600361248e90919063ffffffff16565b7fa5e0f060af304ab17dd418c7927e3da3ae7868189bf387aee09ab179ccc572f2816040516122ee919061288c565b60405180910390a150565b61230d816002611fe990919063ffffffff16565b7f71ae26cad02663e3d92efd6ec56031a80d74a20c0ab4183faa8bf262261c9baa8160405161233c919061288c565b60405180910390a150565b61235b81600261248e90919063ffffffff16565b7fdb7176e79cffef81cb01767dd0447a0b24bb72ca9778d4b245581086b2a7e6db8160405161238a919061288c565b60405180910390a150565b600073ffffffffffffffffffffffffffffffffffffffff168173ffffffffffffffffffffffffffffffffffffffff16036123ce57600080fd5b8073ffffffffffffffffffffffffffffffffffffffff16600460009054906101000a900473ffffffffffffffffffffffffffffffffffffffff1673ffffffffffffffffffffffffffffffffffffffff167f5c486528ec3e3f0ea91181cff8116f02bfa350e03b8b6f12e00765adbb5af85c60405160405180910390a380600460006101000a81548173ffffffffffffffffffffffffffffffffffffffff021916908373ffffffffffffffffffffffffffffffffffffffff16021790555050565b600073ffffffffffffffffffffffffffffffffffffffff168173ffffffffffffffffffffffffffffffffffffffff16036124c757600080fd5b6124d182826120e2565b6124da57600080fd5b60008260000160008373ffffffffffffffffffffffffffffffffffffffff1673ffffffffffffffffffffffffffffffffffffffff16815260200190815260200160002060006101000a81548160ff0219169083151502179055505050565b6000604051905090565b600080fd5b600080fd5b600073ffffffffffffffffffffffffffffffffffffffff82169050919050565b60006125778261254c565b9050919050565b6125878161256c565b811461259257600080fd5b50565b6000813590506125a48161257e565b92915050565b6000602082840312156125c0576125bf612542565b5b60006125ce84828501612595565b91505092915050565b6000819050919050565b6125ea816125d7565b81146125f557600080fd5b50565b600081359050612607816125e1565b92915050565b6000806040838503121561262457612623612542565b5b6000612632858286016125f8565b9250506020612643858286016125f8565b9150509250929050565b60006020828403121561266357612662612542565b5b6000612671848285016125f8565b91505092915050565b60008115159050919050565b61268f8161267a565b82525050565b60006020820190506126aa6000830184612686565b92915050565b6126b9816125d7565b82525050565b600081519050919050565b600082825260208201905092915050565b60005b838110156126f95780820151818401526020810190506126de565b60008484015250505050565b6000601f19601f8301169050919050565b6000612721826126bf565b61272b81856126ca565b935061273b8185602086016126db565b61274481612705565b840191505092915050565b6127588161256c565b82525050565b600061012082019050612774600083018c6126b0565b612781602083018b6126b0565b61278e604083018a6126b0565b81810360608301526127a08189612716565b90506127af60808301886126b0565b6127bc60a08301876126b0565b6127c960c083018661274f565b6127d660e083018561274f565b6127e461010083018461274f565b9a9950505050505050505050565b600061010082019050612808600083018b6126b0565b612815602083018a6126b0565b612822604083018961274f565b61282f606083018861274f565b81810360808301526128418187612716565b905081810360a08301526128558186612716565b905081810360c08301526128698185612716565b905081810360e083015261287d8184612716565b90509998505050505050505050565b60006020820190506128a1600083018461274f565b92915050565b600080fd5b600080fd5b7f4e487b7100000000000000000000000000000000000000000000000000000000600052604160045260246000fd5b6128e982612705565b810181811067ffffffffffffffff82111715612908576129076128b1565b5b80604052505050565b600061291b612538565b905061292782826128e0565b919050565b600067ffffffffffffffff821115612947576129466128b1565b5b61295082612705565b9050602081019050919050565b82818337600083830152505050565b600061297f61297a8461292c565b612911565b90508281526020810184848401111561299b5761299a6128ac565b5b6129a684828561295d565b509392505050565b600082601f8301126129c3576129c26128a7565b5b81356129d384826020860161296c565b91505092915050565b600080600080600080600060e0888a0312156129fb576129fa612542565b5b6000612a098a828b016125f8565b9750506020612a1a8a828b01612595565b965050604088013567ffffffffffffffff811115612a3b57612a3a612547565b5b612a478a828b016129ae565b955050606088013567ffffffffffffffff811115612a6857612a67612547565b5b612a748a828b016129ae565b945050608088013567ffffffffffffffff811115612a9557612a94612547565b5b612aa18a828b016129ae565b93505060a088013567ffffffffffffffff811115612ac257612ac1612547565b5b612ace8a828b016129ae565b92505060c088013567ffffffffffffffff811115612aef57612aee612547565b5b612afb8a828b016129ae565b91505092959891949750929550565b7f53656e646572206973206e6f7420612076616c696420636f6e73756d65720000600082015250565b6000612b40601e836126ca565b9150612b4b82612b0a565b602082019050919050565b60006020820190508181036000830152612b6f81612b33565b9050919050565b7f53656e646572206973206e6f7420612076616c6964206661726d657200000000600082015250565b6000612bac601c836126ca565b9150612bb782612b76565b602082019050919050565b60006020820190508181036000830152612bdb81612b9f565b9050919050565b7f4e487b7100000000000000000000000000000000000000000000000000000000600052602160045260246000fd5b6000602082019050612c2660008301846126b0565b92915050565b7f4e487b7100000000000000000000000000000000000000000000000000000000600052602260045260246000fd5b60006002820490506001821680612c7357607f821691505b602082108103612c8657612c85612c2c565b5b50919050565b7f53656e646572206973206e6f7420612076616c6964206469737472696275746f60008201527f7200000000000000000000000000000000000000000000000000000000000000602082015250565b6000612ce86021836126ca565b9150612cf382612c8c565b604082019050919050565b60006020820190508181036000830152612d1781612cdb565b9050919050565b7f53656e646572206973206e6f7420612076616c69642072657461696c65720000600082015250565b6000612d54601e836126ca565b9150612d5f82612d1e565b602082019050919050565b60006020820190508181036000830152612d8381612d47565b9050919050565b7f4e487b7100000000000000000000000000000000000000000000000000000000600052601160045260246000fd5b6000612dc4826125d7565b9150612dcf836125d7565b9250828201905080821115612de757612de6612d8a565b5b92915050565b7f546865205550432070726f766964656420697320616c7265616479206861727660008201527f6573746564000000000000000000000000000000000000000000000000000000602082015250565b6000612e496025836126ca565b9150612e5482612ded565b604082019050919050565b60006020820190508181036000830152612e7881612e3c565b9050919050565b60008190508160005260206000209050919050565b60006020601f8301049050919050565b600082821b905092915050565b600060088302612ee17fffffffffffffffffffffffffffffffffffffffffffffffffffffffffffffffff82612ea4565b612eeb8683612ea4565b95508019841693508086168417925050509392505050565b6000819050919050565b6000612f28612f23612f1e846125d7565b612f03565b6125d7565b9050919050565b6000819050919050565b612f4283612f0d565b612f56612f4e82612f2f565b848454612eb1565b825550505050565b600090565b612f6b612f5e565b612f76818484612f39565b505050565b5b81811015612f9a57612f8f600082612f63565b600181019050612f7c565b5050565b601f821115612fdf57612fb081612e7f565b612fb984612e94565b81016020851015612fc8578190505b612fdc612fd485612e94565b830182612f7b565b50505b505050565b600082821c905092915050565b600061300260001984600802612fe4565b1980831691505092915050565b600061301b8383612ff1565b9150826002028217905092915050565b613034826126bf565b67ffffffffffffffff81111561304d5761304c6128b1565b5b6130578254612c5b565b613062828285612f9e565b600060209050601f8311600181146130955760008415613083578287015190505b61308d858261300f565b8655506130f5565b601f1984166130a386612e7f565b60005b828110156130cb578489015182556001820191506020850194506020810190506130a6565b868310156130e857848901516130e4601f891682612ff1565b8355505b6001600288020188555050505b505050505050565b600081905092915050565b50565b60006131186000836130fd565b915061312382613108565b600082019050919050565b60006131398261310b565b9150819050919050565b7f4661696c656420746f2073656e64204574686572000000000000000000000000600082015250565b60006131796014836126ca565b915061318482613143565b602082019050919050565b600060208201905081810360008301526131a88161316c565b9050919050565b60006131ba826125d7565b91506131c5836125d7565b92508282039050818111156131dd576131dc612d8a565b5b9291505056fea264697066735822122063be3f8235b65aacbbedd41916941ae8e07bd96669fc60fe9ad970fcd53700cc64736f6c63430008100033",
  "immutableReferences": {},
  "source": "// SPDX-License-Identifier: MIT\npragma solidity ^0.8.0;\n\n// Imports\nimport '../coffeeaccesscontrol/DistributorRole.sol';\nimport '../coffeeaccesscontrol/ConsumerRole.sol';\nimport '../coffeeaccesscontrol/RetailerRole.sol';\nimport '../coffeeaccesscontrol/FarmerRole.sol';\nimport '../coffeecore/Ownable.sol';\n\n// Define a contract 'Supplychain'\ncontract SupplyChain is DistributorRole, ConsumerRole, RetailerRole, FarmerRole, Ownable {\n\n    // Define a variable called 'upc' for Universal Product Code (UPC)\n    uint  upc;\n\n    // Define a variable called 'sku' for Stock Keeping Unit (SKU)\n    uint  sku;\n\n    // Define a public mapping 'items' that maps the UPC to an Item.\n    mapping (uint => Item) items;\n\n    // Define a public mapping 'itemsHistory' that maps the UPC to an array of TxHash, \n    // that track its journey through the supply chain -- to be sent from DApp.\n    mapping (uint => string[]) itemsHistory;\n    \n    // Define enum 'State' with the following values:\n    enum State { \n        Harvested,\n        Processed,\n        Packed,\n        ForSale,\n        Sold,\n        Shipped,\n        Received,\n        Purchased \n    }\n\n    // Define a struct 'Item' with the following fields:\n    struct Item {\n        uint    sku;                    // Stock Keeping Unit (SKU)\n        uint    upc;                    // Universal Product Code (UPC), generated by the Farmer, goes on the package, can be verified by the Consumer\n        address ownerID;                // Metamask-Ethereum address of the current owner as the product moves through 8 stages\n        address originFarmerID;         // Metamask-Ethereum address of the Farmer\n        string  originFarmName;         // Farmer Name\n        string  originFarmInformation;  // Farmer Information\n        string  originFarmLatitude;     // Farm Latitude\n        string  originFarmLongitude;    // Farm Longitude\n        uint    productID;              // Product ID potentially a combination of upc + sku\n        string  productNotes;           // Product Notes\n        uint    productPrice;           // Product Price\n        State   itemState;              // Product State as represented in the enum above\n        address distributorID;          // Metamask-Ethereum address of the Distributor\n        address retailerID;             // Metamask-Ethereum address of the Retailer\n        address consumerID;             // Metamask-Ethereum address of the Consumer\n    }\n\n    // Define 8 events with the same 8 state values and accept 'upc' as input argument\n    event Harvested(uint upc);\n    event Processed(uint upc);\n    event Packed(uint upc);\n    event ForSale(uint upc);\n    event Sold(uint upc);\n    event Shipped(uint upc);\n    event Received(uint upc);\n    event Purchased(uint upc);\n\n    /// @dev Constructor initializes 'sky' and 'upc' to 1\n    constructor() payable {\n        sku = 1;\n        upc = 1;\n    }\n\n    // Define a modifier that checks if the paid amount is sufficient to cover the price\n    modifier paidEnough(uint _price) { \n        require(msg.value >= _price); \n        _;\n    }\n    \n    // Define a modifier that checks the price and refunds the remaining balance\n    modifier checkValue(uint _upc) {\n        require(msg.value >= items[_upc].productPrice); \n        _;\n        uint _price = items[_upc].productPrice;\n        uint amountToReturn = msg.value - _price;\n        payable(items[_upc].consumerID).transfer(amountToReturn);\n    }\n\n    // Define a modifier that checks if an item.state of a upc is Harvested\n    modifier harvested(uint _upc) {\n        require(items[_upc].itemState == State.Harvested);\n        _;\n    }\n\n    // Define a modifier that checks if an item.state of a upc is Processed\n    modifier processed(uint _upc) {\n        require(items[_upc].itemState == State.Processed);\n        _;\n    }\n    \n    // Define a modifier that checks if an item.state of a upc is Packed\n    modifier packed(uint _upc) {\n        require(items[_upc].itemState == State.Packed);\n        _;\n    }\n\n    // Define a modifier that checks if an item.state of a upc is ForSale\n    modifier forSale(uint _upc) {\n        require(items[_upc].itemState == State.ForSale);\n        _;\n    }\n\n    // Define a modifier that checks if an item.state of a upc is Sold\n    modifier sold(uint _upc) {\n        require(items[_upc].itemState == State.Sold);\n        _;\n    }\n    \n    // Define a modifier that checks if an item.state of a upc is Shipped\n    modifier shipped(uint _upc) {\n        require(items[_upc].itemState == State.Shipped);\n        _;\n    }\n\n    // Define a modifier that checks if an item.state of a upc is Received\n    modifier received(uint _upc) {\n        require(items[_upc].itemState == State.Received);\n        _;\n    }\n\n    // Define a modifier that checks if an item.state of a upc is Purchased\n    modifier purchased(uint _upc) {\n        require(items[_upc].itemState == State.Purchased);\n        _;\n    }\n\n    // Define a function 'kill' if required. Only owner can call kill\n    function kill() public onlyOwner {\n        selfdestruct(payable(owner()));\n    }\n\n    // Define a function 'harvestItem' that allows a farmer to mark an item 'Harvested'\n    function harvestItem(uint _upc, address _originFarmerID, string memory _originFarmName, string memory _originFarmInformation, string memory _originFarmLatitude, string memory _originFarmLongitude, string memory _productNotes) onlyFarmer public {\n        // Only can harvest an item that is not harvest already\n        require(items[_upc].upc == 0, \"The UPC provided is already harvested\");\n        // Add the new item as part of Harvest\n        items[_upc] = Item(1, _upc, msg.sender, _originFarmerID, _originFarmName, _originFarmInformation, _originFarmLatitude, _originFarmLongitude, _upc + sku, _productNotes, 0, State.Harvested, address(0), address(0), address(0));\n        // Increment sku\n        sku = sku + 1;\n        // Emit the appropriate event\n        emit Harvested(_upc);\n    }\n\n    // Define a function 'processtItem' that allows a farmer to mark an item 'Processed'\n    function processItem(uint _upc) public onlyFarmer harvested(_upc) {\n        // Update the appropriate fields\n        items[_upc].itemState = State.Processed;\n        // Emit the appropriate event\n        emit Processed(_upc);\n    }\n\n    // Define a function 'packItem' that allows a farmer to mark an item 'Packed'\n    function packItem(uint _upc) public onlyFarmer processed(_upc) {\n        // Update the appropriate fields\n        items[_upc].itemState = State.Packed;\n        // Emit the appropriate event\n        emit Packed(_upc);\n    }\n\n    // Define a function 'addItem' that allows a farmer to add stock to a 'PackedItem' that has NOT already being sent\n    function addItem(uint _upc, uint _units) public onlyFarmer packed(_upc){\n        // Update the stock of this package\n        items[_upc].sku += _units;\n        // Emit the appropriate event\n        emit Packed(_upc);\n    }\n\n    // Define a function 'putForSale' that allows a farmer to mark an item 'ForSale'\n    function putForSale(uint _upc, uint _price) public onlyFarmer packed(_upc){\n        // Update the appropriate fields\n        items[_upc].itemState = State.ForSale;\n        items[_upc].productPrice = _price;\n        // Emit the appropriate event\n        emit ForSale(_upc);\n    }\n\n    // Define a function 'buyItem' that allows the disributor to mark an item 'Sold'\n    // Use the above defined modifiers to check if the item is available for sale, if the buyer has paid enough, \n    // and any excess ether sent is refunded back to the buyer\n    function buyItem(uint _upc) public payable onlyDistributor forSale(_upc) paidEnough(items[_upc].productPrice) checkValue(_upc) {\n        // Transfer money to farmer\n        (bool sent, ) = payable(items[_upc].originFarmerID).call{value: msg.value}(\"\");\n        require(sent, \"Failed to send Ether\");\n        // If it goes well update the appropriate fields - ownerID, distributorID, itemState\n        items[_upc].ownerID = msg.sender;\n        items[_upc].distributorID = msg.sender;\n        items[_upc].itemState = State.Sold;\n        // emit the appropriate event\n        emit Sold(_upc);        \n    }\n\n    // Define a function 'shipItem' that allows the distributor to mark an item 'Shipped'\n    // Use the above modifers to check if the item is sold\n    function shipItem(uint _upc) public onlyDistributor sold(_upc) {\n        // Update the appropriate fields\n        items[_upc].itemState = State.Shipped;\n        // Emit the appropriate event\n        emit Shipped(_upc);        \n    }\n\n    // Define a function 'receiveItem' that allows the retailer to mark an item 'Received'\n    // Use the above modifiers to check if the item is shipped\n    function receiveItem(uint _upc) public onlyRetailer shipped(_upc) {\n        // Update the appropriate fields - ownerID, retailerID, itemState\n        items[_upc].ownerID = msg.sender;\n        items[_upc].retailerID = msg.sender;\n        items[_upc].itemState = State.Received;\n        // Emit the appropriate event\n        emit Received(_upc);\n    }\n\n    // Define a function 'purchaseItem' that allows the consumer to mark an item 'Purchased'\n    // Use the above modifiers to check if the item is received\n    function purchaseItem(uint _upc) onlyConsumer received(_upc) public {\n        // Update the appropriate fields - ownerID, consumerID, itemState\n        items[_upc].ownerID = msg.sender;\n        items[_upc].consumerID = msg.sender;\n        items[_upc].itemState = State.Purchased;\n        // Emit the appropriate event\n        emit Purchased(_upc);\n    }\n\n    // Define a function 'fetchItemBufferOne' that fetches the data\n    function fetchItemBufferOne(uint _upc) public view returns (\n        uint itemSKU,\n        uint itemUPC,\n        address ownerID,\n        address originFarmerID,\n        string memory originFarmName,\n        string memory originFarmInformation,\n        string memory originFarmLatitude,\n        string memory originFarmLongitude) {\n        // Assign values to the 8 parameters\n        itemSKU = items[_upc].sku;\n        itemUPC = items[_upc].upc;\n        ownerID = items[_upc].ownerID;\n        originFarmerID = items[_upc].originFarmerID;\n        originFarmName = items[_upc].originFarmName;\n        originFarmInformation = items[_upc].originFarmInformation;\n        originFarmLatitude = items[_upc].originFarmLatitude;\n        originFarmLongitude = items[_upc].originFarmLongitude;\n        // Returns information\n        return (itemSKU, itemUPC, ownerID, originFarmerID, originFarmName, originFarmInformation, originFarmLatitude, originFarmLongitude);\n    }\n\n    // Define a function 'fetchItemBufferTwo' that fetches the data\n    function fetchItemBufferTwo(uint _upc) public view returns (\n        uint    itemSKU,\n        uint    itemUPC,\n        uint    productID,\n        string memory productNotes,\n        uint    productPrice,\n        uint    itemState,\n        address distributorID,\n        address retailerID,\n        address consumerID\n        ) {\n        // Assign values to the 9 parameters\n        itemSKU = items[_upc].sku;\n        itemUPC = items[_upc].upc;\n        productID = items[_upc].productID;\n        productNotes = items[_upc].productNotes;\n        productPrice = items[_upc].productPrice;\n        itemState = uint(items[_upc].itemState);\n        distributorID = items[_upc].distributorID;\n        retailerID = items[_upc].retailerID;\n        consumerID = items[_upc].consumerID;\n        // Returns information\n        return (itemSKU, itemUPC, productID, productNotes, productPrice, itemState, distributorID, retailerID, consumerID );\n    }\n}\n",
  "sourcePath": "/home/isma/Desktop/code/blockchain/CoffeBeanChain/truffle/contracts/coffeebase/SupplyChain.sol",
  "compiler": {
    "name": "solc",
    "version": "0.8.16+commit.07a7930e.Emscripten.clang"
  },
  "schemaVersion": "3.4.9",
  "updatedAt": "2022-08-26T15:23:47.418Z",
  "networkType": "ethereum",
  "devdoc": {
    "kind": "dev",
    "methods": {
      "constructor": {
        "details": "Constructor initializes 'sky' and 'upc' to 1"
      }
    },
    "version": 1
  },
  "userdoc": {
    "kind": "user",
    "methods": {
      "isOwner()": {
        "notice": "Check if the calling address is the owner of the contract"
      },
      "owner()": {
        "notice": "Look up the address of the owner"
      },
      "renounceOwnership()": {
        "notice": "Define a function to renounce ownerhip"
      },
      "transferOwnership(address)": {
        "notice": "Define a public function to transfer ownership"
      }
    },
    "version": 1
  }
}