{
  "contractName": "SupplyChain",
  "abi": [
    {
      "inputs": [],
      "stateMutability": "payable",
      "type": "constructor",
      "payable": true
    },
    {
      "anonymous": false,
      "inputs": [
        {
          "indexed": false,
          "internalType": "address",
          "name": "consumer",
          "type": "address"
        }
      ],
      "name": "ConsumerAdded",
      "type": "event"
    },
    {
      "anonymous": false,
      "inputs": [
        {
          "indexed": false,
          "internalType": "address",
          "name": "consumer",
          "type": "address"
        }
      ],
      "name": "ConsumerRemoved",
      "type": "event"
    },
    {
      "anonymous": false,
      "inputs": [
        {
          "indexed": false,
          "internalType": "address",
          "name": "distributor",
          "type": "address"
        }
      ],
      "name": "DistributorAdded",
      "type": "event"
    },
    {
      "anonymous": false,
      "inputs": [
        {
          "indexed": false,
          "internalType": "address",
          "name": "distributor",
          "type": "address"
        }
      ],
      "name": "DistributorRemoved",
      "type": "event"
    },
    {
      "anonymous": false,
      "inputs": [
        {
          "indexed": false,
          "internalType": "address",
          "name": "farmers",
          "type": "address"
        }
      ],
      "name": "FarmerAdded",
      "type": "event"
    },
    {
      "anonymous": false,
      "inputs": [
        {
          "indexed": false,
          "internalType": "address",
          "name": "farmers",
          "type": "address"
        }
      ],
      "name": "FarmerRemoved",
      "type": "event"
    },
    {
      "anonymous": false,
      "inputs": [
        {
          "indexed": false,
          "internalType": "uint256",
          "name": "upc",
          "type": "uint256"
        }
      ],
      "name": "ForSale",
      "type": "event"
    },
    {
      "anonymous": false,
      "inputs": [
        {
          "indexed": false,
          "internalType": "uint256",
          "name": "upc",
          "type": "uint256"
        }
      ],
      "name": "Harvested",
      "type": "event"
    },
    {
      "anonymous": false,
      "inputs": [
        {
          "indexed": false,
          "internalType": "uint256",
          "name": "upc",
          "type": "uint256"
        }
      ],
      "name": "Packed",
      "type": "event"
    },
    {
      "anonymous": false,
      "inputs": [
        {
          "indexed": false,
          "internalType": "uint256",
          "name": "upc",
          "type": "uint256"
        }
      ],
      "name": "Processed",
      "type": "event"
    },
    {
      "anonymous": false,
      "inputs": [
        {
          "indexed": false,
          "internalType": "uint256",
          "name": "upc",
          "type": "uint256"
        }
      ],
      "name": "Purchased",
      "type": "event"
    },
    {
      "anonymous": false,
      "inputs": [
        {
          "indexed": false,
          "internalType": "uint256",
          "name": "upc",
          "type": "uint256"
        }
      ],
      "name": "Received",
      "type": "event"
    },
    {
      "anonymous": false,
      "inputs": [
        {
          "indexed": false,
          "internalType": "address",
          "name": "farmers",
          "type": "address"
        }
      ],
      "name": "RetailerAdded",
      "type": "event"
    },
    {
      "anonymous": false,
      "inputs": [
        {
          "indexed": false,
          "internalType": "address",
          "name": "farmers",
          "type": "address"
        }
      ],
      "name": "RetailerRemoved",
      "type": "event"
    },
    {
      "anonymous": false,
      "inputs": [
        {
          "indexed": false,
          "internalType": "uint256",
          "name": "upc",
          "type": "uint256"
        }
      ],
      "name": "Shipped",
      "type": "event"
    },
    {
      "anonymous": false,
      "inputs": [
        {
          "indexed": false,
          "internalType": "uint256",
          "name": "upc",
          "type": "uint256"
        }
      ],
      "name": "Sold",
      "type": "event"
    },
    {
      "anonymous": false,
      "inputs": [
        {
          "indexed": true,
          "internalType": "address",
          "name": "oldOwner",
          "type": "address"
        },
        {
          "indexed": true,
          "internalType": "address",
          "name": "newOwner",
          "type": "address"
        }
      ],
      "name": "TransferOwnership",
      "type": "event"
    },
    {
      "inputs": [
        {
          "internalType": "address",
          "name": "account",
          "type": "address"
        }
      ],
      "name": "addConsumer",
      "outputs": [],
      "stateMutability": "nonpayable",
      "type": "function"
    },
    {
      "inputs": [
        {
          "internalType": "address",
          "name": "account",
          "type": "address"
        }
      ],
      "name": "addDistributor",
      "outputs": [],
      "stateMutability": "nonpayable",
      "type": "function"
    },
    {
      "inputs": [
        {
          "internalType": "address",
          "name": "account",
          "type": "address"
        }
      ],
      "name": "addFarmer",
      "outputs": [],
      "stateMutability": "nonpayable",
      "type": "function"
    },
    {
      "inputs": [
        {
          "internalType": "address",
          "name": "account",
          "type": "address"
        }
      ],
      "name": "addRetailer",
      "outputs": [],
      "stateMutability": "nonpayable",
      "type": "function"
    },
    {
      "inputs": [
        {
          "internalType": "address",
          "name": "account",
          "type": "address"
        }
      ],
      "name": "isConsumer",
      "outputs": [
        {
          "internalType": "bool",
          "name": "",
          "type": "bool"
        }
      ],
      "stateMutability": "view",
      "type": "function",
      "constant": true
    },
    {
      "inputs": [
        {
          "internalType": "address",
          "name": "account",
          "type": "address"
        }
      ],
      "name": "isDistributor",
      "outputs": [
        {
          "internalType": "bool",
          "name": "",
          "type": "bool"
        }
      ],
      "stateMutability": "view",
      "type": "function",
      "constant": true
    },
    {
      "inputs": [
        {
          "internalType": "address",
          "name": "account",
          "type": "address"
        }
      ],
      "name": "isFarmer",
      "outputs": [
        {
          "internalType": "bool",
          "name": "",
          "type": "bool"
        }
      ],
      "stateMutability": "view",
      "type": "function",
      "constant": true
    },
    {
      "inputs": [],
      "name": "isOwner",
      "outputs": [
        {
          "internalType": "bool",
          "name": "",
          "type": "bool"
        }
      ],
      "stateMutability": "view",
      "type": "function",
      "constant": true
    },
    {
      "inputs": [
        {
          "internalType": "address",
          "name": "account",
          "type": "address"
        }
      ],
      "name": "isRetailer",
      "outputs": [
        {
          "internalType": "bool",
          "name": "",
          "type": "bool"
        }
      ],
      "stateMutability": "view",
      "type": "function",
      "constant": true
    },
    {
      "inputs": [],
      "name": "owner",
      "outputs": [
        {
          "internalType": "address",
          "name": "",
          "type": "address"
        }
      ],
      "stateMutability": "view",
      "type": "function",
      "constant": true
    },
    {
      "inputs": [],
      "name": "renounceConsumer",
      "outputs": [],
      "stateMutability": "nonpayable",
      "type": "function"
    },
    {
      "inputs": [],
      "name": "renounceDistributor",
      "outputs": [],
      "stateMutability": "nonpayable",
      "type": "function"
    },
    {
      "inputs": [],
      "name": "renounceFarmer",
      "outputs": [],
      "stateMutability": "nonpayable",
      "type": "function"
    },
    {
      "inputs": [],
      "name": "renounceOwnership",
      "outputs": [],
      "stateMutability": "nonpayable",
      "type": "function"
    },
    {
      "inputs": [],
      "name": "renounceRetailer",
      "outputs": [],
      "stateMutability": "nonpayable",
      "type": "function"
    },
    {
      "inputs": [
        {
          "internalType": "address",
          "name": "newOwner",
          "type": "address"
        }
      ],
      "name": "transferOwnership",
      "outputs": [],
      "stateMutability": "nonpayable",
      "type": "function"
    },
    {
      "inputs": [],
      "name": "kill",
      "outputs": [],
      "stateMutability": "nonpayable",
      "type": "function"
    },
    {
      "inputs": [
        {
          "internalType": "uint256",
          "name": "_upc",
          "type": "uint256"
        },
        {
          "internalType": "address",
          "name": "_originFarmerID",
          "type": "address"
        },
        {
          "internalType": "string",
          "name": "_originFarmName",
          "type": "string"
        },
        {
          "internalType": "string",
          "name": "_originFarmInformation",
          "type": "string"
        },
        {
          "internalType": "string",
          "name": "_originFarmLatitude",
          "type": "string"
        },
        {
          "internalType": "string",
          "name": "_originFarmLongitude",
          "type": "string"
        },
        {
          "internalType": "string",
          "name": "_productNotes",
          "type": "string"
        }
      ],
      "name": "harvestItem",
      "outputs": [],
      "stateMutability": "nonpayable",
      "type": "function"
    },
    {
      "inputs": [
        {
          "internalType": "uint256",
          "name": "_upc",
          "type": "uint256"
        }
      ],
      "name": "processItem",
      "outputs": [],
      "stateMutability": "nonpayable",
      "type": "function"
    },
    {
      "inputs": [
        {
          "internalType": "uint256",
          "name": "_upc",
          "type": "uint256"
        }
      ],
      "name": "packItem",
      "outputs": [],
      "stateMutability": "nonpayable",
      "type": "function"
    },
    {
      "inputs": [
        {
          "internalType": "uint256",
          "name": "_upc",
          "type": "uint256"
        },
        {
          "internalType": "uint256",
          "name": "_price",
          "type": "uint256"
        }
      ],
      "name": "putForSale",
      "outputs": [],
      "stateMutability": "nonpayable",
      "type": "function"
    },
    {
      "inputs": [
        {
          "internalType": "uint256",
          "name": "_upc",
          "type": "uint256"
        }
      ],
      "name": "buyItem",
      "outputs": [],
      "stateMutability": "payable",
      "type": "function",
      "payable": true
    },
    {
      "inputs": [
        {
          "internalType": "uint256",
          "name": "_upc",
          "type": "uint256"
        }
      ],
      "name": "shipItem",
      "outputs": [],
      "stateMutability": "nonpayable",
      "type": "function"
    },
    {
      "inputs": [
        {
          "internalType": "uint256",
          "name": "_upc",
          "type": "uint256"
        }
      ],
      "name": "receiveItem",
      "outputs": [],
      "stateMutability": "nonpayable",
      "type": "function"
    },
    {
      "inputs": [
        {
          "internalType": "uint256",
          "name": "_upc",
          "type": "uint256"
        }
      ],
      "name": "purchaseItem",
      "outputs": [],
      "stateMutability": "nonpayable",
      "type": "function"
    },
    {
      "inputs": [
        {
          "internalType": "uint256",
          "name": "_upc",
          "type": "uint256"
        }
      ],
      "name": "fetchItemBuffer",
      "outputs": [
        {
          "internalType": "uint256",
          "name": "itemSKU",
          "type": "uint256"
        },
        {
          "internalType": "uint256",
          "name": "itemUPC",
          "type": "uint256"
        },
        {
          "internalType": "address",
          "name": "ownerID",
          "type": "address"
        },
        {
          "internalType": "address",
          "name": "originFarmerID",
          "type": "address"
        },
        {
          "internalType": "string",
          "name": "originFarmName",
          "type": "string"
        },
        {
          "internalType": "string",
          "name": "originFarmInformation",
          "type": "string"
        },
        {
          "internalType": "string",
          "name": "originFarmLatitude",
          "type": "string"
        },
        {
          "internalType": "string",
          "name": "originFarmLongitude",
          "type": "string"
        }
      ],
      "stateMutability": "view",
      "type": "function",
      "constant": true
    },
    {
      "inputs": [
        {
          "internalType": "uint256",
          "name": "_upc",
          "type": "uint256"
        }
      ],
      "name": "fetchItemBufferTwo",
      "outputs": [
        {
          "internalType": "uint256",
          "name": "itemSKU",
          "type": "uint256"
        },
        {
          "internalType": "uint256",
          "name": "itemUPC",
          "type": "uint256"
        },
        {
          "internalType": "uint256",
          "name": "productID",
          "type": "uint256"
        },
        {
          "internalType": "string",
          "name": "productNotes",
          "type": "string"
        },
        {
          "internalType": "uint256",
          "name": "productPrice",
          "type": "uint256"
        },
        {
          "internalType": "uint256",
          "name": "itemState",
          "type": "uint256"
        },
        {
          "internalType": "address",
          "name": "distributorID",
          "type": "address"
        },
        {
          "internalType": "address",
          "name": "retailerID",
          "type": "address"
        },
        {
          "internalType": "address",
          "name": "consumerID",
          "type": "address"
        }
      ],
      "stateMutability": "view",
      "type": "function",
      "constant": true
    }
  ],
  "bytecode": "0x60806040526200001f3360006200013060201b62001f321790919060201c565b6200003a3360016200013060201b62001f321790919060201c565b6200004b33620001e560201b60201c565b6200005c336200023c60201b60201c565b33600460006101000a81548173ffffffffffffffffffffffffffffffffffffffff021916908373ffffffffffffffffffffffffffffffffffffffff160217905550600460009054906101000a900473ffffffffffffffffffffffffffffffffffffffff1673ffffffffffffffffffffffffffffffffffffffff16600073ffffffffffffffffffffffffffffffffffffffff167f5c486528ec3e3f0ea91181cff8116f02bfa350e03b8b6f12e00765adbb5af85c60405160405180910390a36001600681905550600160058190555062000387565b600073ffffffffffffffffffffffffffffffffffffffff168173ffffffffffffffffffffffffffffffffffffffff16036200016a57600080fd5b6200017c82826200029360201b60201c565b156200018757600080fd5b60018260000160008373ffffffffffffffffffffffffffffffffffffffff1673ffffffffffffffffffffffffffffffffffffffff16815260200190815260200160002060006101000a81548160ff0219169083151502179055505050565b620002008160026200013060201b62001f321790919060201c565b7f71ae26cad02663e3d92efd6ec56031a80d74a20c0ab4183faa8bf262261c9baa816040516200023191906200036a565b60405180910390a150565b620002578160036200013060201b62001f321790919060201c565b7f2e0ded4123377a3c2bc9a26f1717655a129e2f20752924d42e730ec89c83dbd0816040516200028891906200036a565b60405180910390a150565b60008073ffffffffffffffffffffffffffffffffffffffff168273ffffffffffffffffffffffffffffffffffffffff1603620002ce57600080fd5b8260000160008373ffffffffffffffffffffffffffffffffffffffff1673ffffffffffffffffffffffffffffffffffffffff16815260200190815260200160002060009054906101000a900460ff16905092915050565b600073ffffffffffffffffffffffffffffffffffffffff82169050919050565b6000620003528262000325565b9050919050565b620003648162000345565b82525050565b600060208201905062000381600083018462000359565b92915050565b61316280620003976000396000f3fe60806040526004361061019c5760003560e01c80638da5cb5b116100ec578063bdd8a6a81161008a578063e7fb74c711610064578063e7fb74c71461056f578063f2fde38b1461058b578063f30fc480146105b4578063f61c899a146105dd5761019c565b8063bdd8a6a814610506578063d38ea5bf1461052f578063db0e6a2f146105585761019c565b80638f32d59b116100c65780638f32d59b14610431578063a26be9991461045c578063b942906914610485578063ba02bc80146104c25761019c565b80638da5cb5b146103a05780638ec4f505146103cb5780638f0c86fa146103f45761019c565b8063644241db116101595780637250e224116101335780637250e224146102fa57806380c3f96d1461032357806380fc0ce41461034c578063834ff739146103635761019c565b8063644241db1461028757806366225ff91461029e578063715018a6146102e35761019c565b8063112940f9146101a15780633cd76be2146101ca57806341c0e1b5146101f357806349dae7661461020a5780635da09b881461023357806361e6982d14610270575b600080fd5b3480156101ad57600080fd5b506101c860048036038101906101c391906124f3565b610606565b005b3480156101d657600080fd5b506101f160048036038101906101ec9190612556565b61065a565b005b3480156101ff57600080fd5b5061020861078d565b005b34801561021657600080fd5b50610231600480360381019061022c9190612596565b6107be565b005b34801561023f57600080fd5b5061025a600480360381019061025591906124f3565b6108d5565b60405161026791906125de565b60405180910390f35b34801561027c57600080fd5b506102856108f2565b005b34801561029357600080fd5b5061029c6108fd565b005b3480156102aa57600080fd5b506102c560048036038101906102c09190612596565b610908565b6040516102da999897969594939291906126a7565b60405180910390f35b3480156102ef57600080fd5b506102f8610b0c565b005b34801561030657600080fd5b50610321600480360381019061031c91906124f3565b610bde565b005b34801561032f57600080fd5b5061034a600480360381019061034591906124f3565b610c32565b005b34801561035857600080fd5b50610361610c86565b005b34801561036f57600080fd5b5061038a600480360381019061038591906124f3565b610c91565b60405161039791906125de565b60405180910390f35b3480156103ac57600080fd5b506103b5610cae565b6040516103c2919061273b565b60405180910390f35b3480156103d757600080fd5b506103f260048036038101906103ed91906124f3565b610cd8565b005b34801561040057600080fd5b5061041b600480360381019061041691906124f3565b610d2c565b60405161042891906125de565b60405180910390f35b34801561043d57600080fd5b50610446610d49565b60405161045391906125de565b60405180910390f35b34801561046857600080fd5b50610483600480360381019061047e9190612596565b610da1565b005b34801561049157600080fd5b506104ac60048036038101906104a791906124f3565b610f62565b6040516104b991906125de565b60405180910390f35b3480156104ce57600080fd5b506104e960048036038101906104e49190612596565b610f7f565b6040516104fd989796959493929190612756565b60405180910390f35b34801561051257600080fd5b5061052d60048036038101906105289190612925565b6112be565b005b34801561053b57600080fd5b5061055660048036038101906105519190612596565b6116f1565b005b34801561056457600080fd5b5061056d6118b1565b005b61058960048036038101906105849190612596565b6118bc565b005b34801561059757600080fd5b506105b260048036038101906105ad91906124f3565b611ce7565b005b3480156105c057600080fd5b506105db60048036038101906105d69190612596565b611d04565b005b3480156105e957600080fd5b5061060460048036038101906105ff9190612596565b611e1b565b005b61060f33610c91565b61064e576040517f08c379a000000000000000000000000000000000000000000000000000000000815260040161064590612a9f565b60405180910390fd5b61065781611fdd565b50565b61066333610f62565b6106a2576040517f08c379a000000000000000000000000000000000000000000000000000000000815260040161069990612b0b565b60405180910390fd5b81600260078111156106b7576106b6612b2b565b5b60076000838152602001908152602001600020600b0160009054906101000a900460ff1660078111156106ed576106ec612b2b565b5b146106f757600080fd5b600360076000858152602001908152602001600020600b0160006101000a81548160ff0219169083600781111561073157610730612b2b565b5b02179055508160076000858152602001908152602001600020600a01819055507fa96ae0fc3224ebd79eebfe54bd130cc9cb94416cddd1f2386115e00b72532468836040516107809190612b5a565b60405180910390a1505050565b610795610d49565b61079e57600080fd5b6107a6610cae565b73ffffffffffffffffffffffffffffffffffffffff16ff5b6107c733610f62565b610806576040517f08c379a00000000000000000000000000000000000000000000000000000000081526004016107fd90612b0b565b60405180910390fd5b806000600781111561081b5761081a612b2b565b5b60076000838152602001908152602001600020600b0160009054906101000a900460ff16600781111561085157610850612b2b565b5b1461085b57600080fd5b600160076000848152602001908152602001600020600b0160006101000a81548160ff0219169083600781111561089557610894612b2b565b5b02179055507f5afe3b1bf87069693c075da5c22a98d63d1aef98a30dbbe538d0781a98b77ee5826040516108c99190612b5a565b60405180910390a15050565b60006108eb82600261202b90919063ffffffff16565b9050919050565b6108fb336120bc565b565b6109063361210a565b565b600080600060606000806000806000600760008b8152602001908152602001600020600001549850600760008b8152602001908152602001600020600101549750600760008b8152602001908152602001600020600801549650600760008b8152602001908152602001600020600901805461098390612ba4565b80601f01602080910402602001604051908101604052809291908181526020018280546109af90612ba4565b80156109fc5780601f106109d1576101008083540402835291602001916109fc565b820191906000526020600020905b8154815290600101906020018083116109df57829003601f168201915b50505050509550600760008b8152602001908152602001600020600a01549450600760008b8152602001908152602001600020600b0160009054906101000a900460ff166007811115610a5257610a51612b2b565b5b9350600760008b8152602001908152602001600020600b0160019054906101000a900473ffffffffffffffffffffffffffffffffffffffff169250600760008b8152602001908152602001600020600c0160009054906101000a900473ffffffffffffffffffffffffffffffffffffffff169150600760008b8152602001908152602001600020600d0160009054906101000a900473ffffffffffffffffffffffffffffffffffffffff1690509193959799909294969850565b610b14610d49565b610b1d57600080fd5b600073ffffffffffffffffffffffffffffffffffffffff16600460009054906101000a900473ffffffffffffffffffffffffffffffffffffffff1673ffffffffffffffffffffffffffffffffffffffff167f5c486528ec3e3f0ea91181cff8116f02bfa350e03b8b6f12e00765adbb5af85c60405160405180910390a36000600460006101000a81548173ffffffffffffffffffffffffffffffffffffffff021916908373ffffffffffffffffffffffffffffffffffffffff160217905550565b610be733610d2c565b610c26576040517f08c379a0000000000000000000000000000000000000000000000000000000008152600401610c1d90612c47565b60405180910390fd5b610c2f81612158565b50565b610c3b33610f62565b610c7a576040517f08c379a0000000000000000000000000000000000000000000000000000000008152600401610c7190612b0b565b60405180910390fd5b610c83816121a6565b50565b610c8f336121f4565b565b6000610ca782600161202b90919063ffffffff16565b9050919050565b6000600460009054906101000a900473ffffffffffffffffffffffffffffffffffffffff16905090565b610ce1336108d5565b610d20576040517f08c379a0000000000000000000000000000000000000000000000000000000008152600401610d1790612cb3565b60405180910390fd5b610d2981612242565b50565b6000610d4282600061202b90919063ffffffff16565b9050919050565b6000600460009054906101000a900473ffffffffffffffffffffffffffffffffffffffff1673ffffffffffffffffffffffffffffffffffffffff163373ffffffffffffffffffffffffffffffffffffffff1614905090565b610daa336108d5565b610de9576040517f08c379a0000000000000000000000000000000000000000000000000000000008152600401610de090612cb3565b60405180910390fd5b8060056007811115610dfe57610dfd612b2b565b5b60076000838152602001908152602001600020600b0160009054906101000a900460ff166007811115610e3457610e33612b2b565b5b14610e3e57600080fd5b336007600084815260200190815260200160002060020160006101000a81548173ffffffffffffffffffffffffffffffffffffffff021916908373ffffffffffffffffffffffffffffffffffffffff1602179055503360076000848152602001908152602001600020600c0160006101000a81548173ffffffffffffffffffffffffffffffffffffffff021916908373ffffffffffffffffffffffffffffffffffffffff160217905550600660076000848152602001908152602001600020600b0160006101000a81548160ff02191690836007811115610f2257610f21612b2b565b5b02179055507fa8142743f8f70a4c26f3691cf4ed59718381fb2f18070ec52be1f1022d85555782604051610f569190612b5a565b60405180910390a15050565b6000610f7882600361202b90919063ffffffff16565b9050919050565b600080600080606080606080600760008a8152602001908152602001600020600001549750600760008a8152602001908152602001600020600101549650600760008a815260200190815260200160002060020160009054906101000a900473ffffffffffffffffffffffffffffffffffffffff169550600760008a815260200190815260200160002060030160009054906101000a900473ffffffffffffffffffffffffffffffffffffffff169450600760008a8152602001908152602001600020600401805461105090612ba4565b80601f016020809104026020016040519081016040528092919081815260200182805461107c90612ba4565b80156110c95780601f1061109e576101008083540402835291602001916110c9565b820191906000526020600020905b8154815290600101906020018083116110ac57829003601f168201915b50505050509350600760008a815260200190815260200160002060050180546110f190612ba4565b80601f016020809104026020016040519081016040528092919081815260200182805461111d90612ba4565b801561116a5780601f1061113f5761010080835404028352916020019161116a565b820191906000526020600020905b81548152906001019060200180831161114d57829003601f168201915b50505050509250600760008a8152602001908152602001600020600601805461119290612ba4565b80601f01602080910402602001604051908101604052809291908181526020018280546111be90612ba4565b801561120b5780601f106111e05761010080835404028352916020019161120b565b820191906000526020600020905b8154815290600101906020018083116111ee57829003601f168201915b50505050509150600760008a8152602001908152602001600020600701805461123390612ba4565b80601f016020809104026020016040519081016040528092919081815260200182805461125f90612ba4565b80156112ac5780601f10611281576101008083540402835291602001916112ac565b820191906000526020600020905b81548152906001019060200180831161128f57829003601f168201915b50505050509050919395975091939597565b6112c733610f62565b611306576040517f08c379a00000000000000000000000000000000000000000000000000000000081526004016112fd90612b0b565b60405180910390fd5b600060076000898152602001908152602001600020600101541461135f576040517f08c379a000000000000000000000000000000000000000000000000000000000815260040161135690612d45565b60405180910390fd5b604051806101e00160405280600081526020018881526020013373ffffffffffffffffffffffffffffffffffffffff1681526020018773ffffffffffffffffffffffffffffffffffffffff168152602001868152602001858152602001848152602001838152602001600654896113d69190612d94565b815260200182815260200160008152602001600060078111156113fc576113fb612b2b565b5b8152602001600073ffffffffffffffffffffffffffffffffffffffff168152602001600073ffffffffffffffffffffffffffffffffffffffff168152602001600073ffffffffffffffffffffffffffffffffffffffff1681525060076000898152602001908152602001600020600082015181600001556020820151816001015560408201518160020160006101000a81548173ffffffffffffffffffffffffffffffffffffffff021916908373ffffffffffffffffffffffffffffffffffffffff16021790555060608201518160030160006101000a81548173ffffffffffffffffffffffffffffffffffffffff021916908373ffffffffffffffffffffffffffffffffffffffff16021790555060808201518160040190816115209190612f74565b5060a08201518160050190816115369190612f74565b5060c082015181600601908161154c9190612f74565b5060e08201518160070190816115629190612f74565b5061010082015181600801556101208201518160090190816115849190612f74565b5061014082015181600a015561016082015181600b0160006101000a81548160ff021916908360078111156115bc576115bb612b2b565b5b021790555061018082015181600b0160016101000a81548173ffffffffffffffffffffffffffffffffffffffff021916908373ffffffffffffffffffffffffffffffffffffffff1602179055506101a082015181600c0160006101000a81548173ffffffffffffffffffffffffffffffffffffffff021916908373ffffffffffffffffffffffffffffffffffffffff1602179055506101c082015181600d0160006101000a81548173ffffffffffffffffffffffffffffffffffffffff021916908373ffffffffffffffffffffffffffffffffffffffff16021790555090505060016006546116ab9190612d94565b6006819055507f8e55ccfc9778ff8eba1646d765cf1982537ce0f9257054a17b48aad745250183876040516116e09190612b5a565b60405180910390a150505050505050565b6116fa33610c91565b611739576040517f08c379a000000000000000000000000000000000000000000000000000000000815260040161173090612a9f565b60405180910390fd5b806006600781111561174e5761174d612b2b565b5b60076000838152602001908152602001600020600b0160009054906101000a900460ff16600781111561178457611783612b2b565b5b1461178e57600080fd5b336007600084815260200190815260200160002060020160006101000a81548173ffffffffffffffffffffffffffffffffffffffff021916908373ffffffffffffffffffffffffffffffffffffffff1602179055503360076000848152602001908152602001600020600d0160006101000a81548173ffffffffffffffffffffffffffffffffffffffff021916908373ffffffffffffffffffffffffffffffffffffffff1602179055506007806000848152602001908152602001600020600b0160006101000a81548160ff0219169083600781111561187157611870612b2b565b5b02179055507f653d56639fee6b566a5c804764e9689de38645f0b733df89a36a1b7b42173dd8826040516118a59190612b5a565b60405180910390a15050565b6118ba33612290565b565b6118c533610d2c565b611904576040517f08c379a00000000000000000000000000000000000000000000000000000000081526004016118fb90612c47565b60405180910390fd5b806003600781111561191957611918612b2b565b5b60076000838152602001908152602001600020600b0160009054906101000a900460ff16600781111561194f5761194e612b2b565b5b1461195957600080fd5b60076000838152602001908152602001600020600a01548034101561197d57600080fd5b8260076000828152602001908152602001600020600a01543410156119a157600080fd5b6007600085815260200190815260200160002060030160009054906101000a900473ffffffffffffffffffffffffffffffffffffffff1673ffffffffffffffffffffffffffffffffffffffff166108fc60076000878152602001908152602001600020600a01549081150290604051600060405180830381858888f19350505050158015611a33573d6000803e3d6000fd5b5060006007600086815260200190815260200160002060030160009054906101000a900473ffffffffffffffffffffffffffffffffffffffff1673ffffffffffffffffffffffffffffffffffffffff1634604051611a9090613077565b60006040518083038185875af1925050503d8060008114611acd576040519150601f19603f3d011682016040523d82523d6000602084013e611ad2565b606091505b5050905080611b16576040517f08c379a0000000000000000000000000000000000000000000000000000000008152600401611b0d906130d8565b60405180910390fd5b336007600087815260200190815260200160002060020160006101000a81548173ffffffffffffffffffffffffffffffffffffffff021916908373ffffffffffffffffffffffffffffffffffffffff1602179055503360076000878152602001908152602001600020600b0160016101000a81548173ffffffffffffffffffffffffffffffffffffffff021916908373ffffffffffffffffffffffffffffffffffffffff160217905550600460076000878152602001908152602001600020600b0160006101000a81548160ff02191690836007811115611bfa57611bf9612b2b565b5b02179055507f92f64ca637d023f354075a4be751b169c1a8a9ccb6d33cdd0cb352054399572785604051611c2e9190612b5a565b60405180910390a150600060076000838152602001908152602001600020600a0154905060008134611c6091906130f8565b905060076000848152602001908152602001600020600d0160009054906101000a900473ffffffffffffffffffffffffffffffffffffffff1673ffffffffffffffffffffffffffffffffffffffff166108fc829081150290604051600060405180830381858888f19350505050158015611cde573d6000803e3d6000fd5b50505050505050565b611cef610d49565b611cf857600080fd5b611d01816122de565b50565b611d0d33610f62565b611d4c576040517f08c379a0000000000000000000000000000000000000000000000000000000008152600401611d4390612b0b565b60405180910390fd5b8060016007811115611d6157611d60612b2b565b5b60076000838152602001908152602001600020600b0160009054906101000a900460ff166007811115611d9757611d96612b2b565b5b14611da157600080fd5b600260076000848152602001908152602001600020600b0160006101000a81548160ff02191690836007811115611ddb57611dda612b2b565b5b02179055507f9b3b66e2380b690bae22c73ef1428fb0c91e72fe14a4b6defa13035214187aff82604051611e0f9190612b5a565b60405180910390a15050565b611e2433610d2c565b611e63576040517f08c379a0000000000000000000000000000000000000000000000000000000008152600401611e5a90612c47565b60405180910390fd5b8060046007811115611e7857611e77612b2b565b5b60076000838152602001908152602001600020600b0160009054906101000a900460ff166007811115611eae57611ead612b2b565b5b14611eb857600080fd5b600560076000848152602001908152602001600020600b0160006101000a81548160ff02191690836007811115611ef257611ef1612b2b565b5b02179055507ff00b9a5725b80c54016f42114f6ed7792d22eecb116011c4afac29c57bef6c9582604051611f269190612b5a565b60405180910390a15050565b600073ffffffffffffffffffffffffffffffffffffffff168173ffffffffffffffffffffffffffffffffffffffff1603611f6b57600080fd5b611f75828261202b565b15611f7f57600080fd5b60018260000160008373ffffffffffffffffffffffffffffffffffffffff1673ffffffffffffffffffffffffffffffffffffffff16815260200190815260200160002060006101000a81548160ff0219169083151502179055505050565b611ff1816001611f3290919063ffffffff16565b7f28b26e7a3d20aedbc5f8f2ebf7da671c0491723a2b78f47a097b0e46dee0714281604051612020919061273b565b60405180910390a150565b60008073ffffffffffffffffffffffffffffffffffffffff168273ffffffffffffffffffffffffffffffffffffffff160361206557600080fd5b8260000160008373ffffffffffffffffffffffffffffffffffffffff1673ffffffffffffffffffffffffffffffffffffffff16815260200190815260200160002060009054906101000a900460ff16905092915050565b6120d08160016123d790919063ffffffff16565b7fe3f5ed5f263f1f01764a96edfc7d025f511ec5f7d180e8816908b78bcf74f098816040516120ff919061273b565b60405180910390a150565b61211e8160006123d790919063ffffffff16565b7f126174f6cf49c81cdb4a9214c6b8f037bef55b4ec31e4fc776cea2a1c8a88d598160405161214d919061273b565b60405180910390a150565b61216c816000611f3290919063ffffffff16565b7fddbf200aa634dc3fb81cfd68583dd1040d1c751d335e1d86b631bde3e977fea88160405161219b919061273b565b60405180910390a150565b6121ba816003611f3290919063ffffffff16565b7f2e0ded4123377a3c2bc9a26f1717655a129e2f20752924d42e730ec89c83dbd0816040516121e9919061273b565b60405180910390a150565b6122088160036123d790919063ffffffff16565b7fa5e0f060af304ab17dd418c7927e3da3ae7868189bf387aee09ab179ccc572f281604051612237919061273b565b60405180910390a150565b612256816002611f3290919063ffffffff16565b7f71ae26cad02663e3d92efd6ec56031a80d74a20c0ab4183faa8bf262261c9baa81604051612285919061273b565b60405180910390a150565b6122a48160026123d790919063ffffffff16565b7fdb7176e79cffef81cb01767dd0447a0b24bb72ca9778d4b245581086b2a7e6db816040516122d3919061273b565b60405180910390a150565b600073ffffffffffffffffffffffffffffffffffffffff168173ffffffffffffffffffffffffffffffffffffffff160361231757600080fd5b8073ffffffffffffffffffffffffffffffffffffffff16600460009054906101000a900473ffffffffffffffffffffffffffffffffffffffff1673ffffffffffffffffffffffffffffffffffffffff167f5c486528ec3e3f0ea91181cff8116f02bfa350e03b8b6f12e00765adbb5af85c60405160405180910390a380600460006101000a81548173ffffffffffffffffffffffffffffffffffffffff021916908373ffffffffffffffffffffffffffffffffffffffff16021790555050565b600073ffffffffffffffffffffffffffffffffffffffff168173ffffffffffffffffffffffffffffffffffffffff160361241057600080fd5b61241a828261202b565b61242357600080fd5b60008260000160008373ffffffffffffffffffffffffffffffffffffffff1673ffffffffffffffffffffffffffffffffffffffff16815260200190815260200160002060006101000a81548160ff0219169083151502179055505050565b6000604051905090565b600080fd5b600080fd5b600073ffffffffffffffffffffffffffffffffffffffff82169050919050565b60006124c082612495565b9050919050565b6124d0816124b5565b81146124db57600080fd5b50565b6000813590506124ed816124c7565b92915050565b6000602082840312156125095761250861248b565b5b6000612517848285016124de565b91505092915050565b6000819050919050565b61253381612520565b811461253e57600080fd5b50565b6000813590506125508161252a565b92915050565b6000806040838503121561256d5761256c61248b565b5b600061257b85828601612541565b925050602061258c85828601612541565b9150509250929050565b6000602082840312156125ac576125ab61248b565b5b60006125ba84828501612541565b91505092915050565b60008115159050919050565b6125d8816125c3565b82525050565b60006020820190506125f360008301846125cf565b92915050565b61260281612520565b82525050565b600081519050919050565b600082825260208201905092915050565b60005b83811015612642578082015181840152602081019050612627565b60008484015250505050565b6000601f19601f8301169050919050565b600061266a82612608565b6126748185612613565b9350612684818560208601612624565b61268d8161264e565b840191505092915050565b6126a1816124b5565b82525050565b6000610120820190506126bd600083018c6125f9565b6126ca602083018b6125f9565b6126d7604083018a6125f9565b81810360608301526126e9818961265f565b90506126f860808301886125f9565b61270560a08301876125f9565b61271260c0830186612698565b61271f60e0830185612698565b61272d610100830184612698565b9a9950505050505050505050565b60006020820190506127506000830184612698565b92915050565b60006101008201905061276c600083018b6125f9565b612779602083018a6125f9565b6127866040830189612698565b6127936060830188612698565b81810360808301526127a5818761265f565b905081810360a08301526127b9818661265f565b905081810360c08301526127cd818561265f565b905081810360e08301526127e1818461265f565b90509998505050505050505050565b600080fd5b600080fd5b7f4e487b7100000000000000000000000000000000000000000000000000000000600052604160045260246000fd5b6128328261264e565b810181811067ffffffffffffffff82111715612851576128506127fa565b5b80604052505050565b6000612864612481565b90506128708282612829565b919050565b600067ffffffffffffffff8211156128905761288f6127fa565b5b6128998261264e565b9050602081019050919050565b82818337600083830152505050565b60006128c86128c384612875565b61285a565b9050828152602081018484840111156128e4576128e36127f5565b5b6128ef8482856128a6565b509392505050565b600082601f83011261290c5761290b6127f0565b5b813561291c8482602086016128b5565b91505092915050565b600080600080600080600060e0888a0312156129445761294361248b565b5b60006129528a828b01612541565b97505060206129638a828b016124de565b965050604088013567ffffffffffffffff81111561298457612983612490565b5b6129908a828b016128f7565b955050606088013567ffffffffffffffff8111156129b1576129b0612490565b5b6129bd8a828b016128f7565b945050608088013567ffffffffffffffff8111156129de576129dd612490565b5b6129ea8a828b016128f7565b93505060a088013567ffffffffffffffff811115612a0b57612a0a612490565b5b612a178a828b016128f7565b92505060c088013567ffffffffffffffff811115612a3857612a37612490565b5b612a448a828b016128f7565b91505092959891949750929550565b7f53656e646572206973206e6f7420612076616c696420637573746f6d65720000600082015250565b6000612a89601e83612613565b9150612a9482612a53565b602082019050919050565b60006020820190508181036000830152612ab881612a7c565b9050919050565b7f53656e646572206973206e6f7420612076616c6964204661726d657200000000600082015250565b6000612af5601c83612613565b9150612b0082612abf565b602082019050919050565b60006020820190508181036000830152612b2481612ae8565b9050919050565b7f4e487b7100000000000000000000000000000000000000000000000000000000600052602160045260246000fd5b6000602082019050612b6f60008301846125f9565b92915050565b7f4e487b7100000000000000000000000000000000000000000000000000000000600052602260045260246000fd5b60006002820490506001821680612bbc57607f821691505b602082108103612bcf57612bce612b75565b5b50919050565b7f53656e646572206973206e6f7420612076616c6964206469737472696275746f60008201527f7200000000000000000000000000000000000000000000000000000000000000602082015250565b6000612c31602183612613565b9150612c3c82612bd5565b604082019050919050565b60006020820190508181036000830152612c6081612c24565b9050919050565b7f53656e646572206973206e6f7420612076616c69642072657461696c65720000600082015250565b6000612c9d601e83612613565b9150612ca882612c67565b602082019050919050565b60006020820190508181036000830152612ccc81612c90565b9050919050565b7f546865205550432070726f766964656420697320616c7265616479206861727660008201527f6573746564000000000000000000000000000000000000000000000000000000602082015250565b6000612d2f602583612613565b9150612d3a82612cd3565b604082019050919050565b60006020820190508181036000830152612d5e81612d22565b9050919050565b7f4e487b7100000000000000000000000000000000000000000000000000000000600052601160045260246000fd5b6000612d9f82612520565b9150612daa83612520565b9250828201905080821115612dc257612dc1612d65565b5b92915050565b60008190508160005260206000209050919050565b60006020601f8301049050919050565b600082821b905092915050565b600060088302612e2a7fffffffffffffffffffffffffffffffffffffffffffffffffffffffffffffffff82612ded565b612e348683612ded565b95508019841693508086168417925050509392505050565b6000819050919050565b6000612e71612e6c612e6784612520565b612e4c565b612520565b9050919050565b6000819050919050565b612e8b83612e56565b612e9f612e9782612e78565b848454612dfa565b825550505050565b600090565b612eb4612ea7565b612ebf818484612e82565b505050565b5b81811015612ee357612ed8600082612eac565b600181019050612ec5565b5050565b601f821115612f2857612ef981612dc8565b612f0284612ddd565b81016020851015612f11578190505b612f25612f1d85612ddd565b830182612ec4565b50505b505050565b600082821c905092915050565b6000612f4b60001984600802612f2d565b1980831691505092915050565b6000612f648383612f3a565b9150826002028217905092915050565b612f7d82612608565b67ffffffffffffffff811115612f9657612f956127fa565b5b612fa08254612ba4565b612fab828285612ee7565b600060209050601f831160018114612fde5760008415612fcc578287015190505b612fd68582612f58565b86555061303e565b601f198416612fec86612dc8565b60005b8281101561301457848901518255600182019150602085019450602081019050612fef565b86831015613031578489015161302d601f891682612f3a565b8355505b6001600288020188555050505b505050505050565b600081905092915050565b50565b6000613061600083613046565b915061306c82613051565b600082019050919050565b600061308282613054565b9150819050919050565b7f4661696c656420746f2073656e64204574686572000000000000000000000000600082015250565b60006130c2601483612613565b91506130cd8261308c565b602082019050919050565b600060208201905081810360008301526130f1816130b5565b9050919050565b600061310382612520565b915061310e83612520565b925082820390508181111561312657613125612d65565b5b9291505056fea26469706673582212204d4449e2857d97d2008e05c73121735123458ab7102ace160c2f440d098ae67b64736f6c63430008100033",
  "immutableReferences": {},
  "source": "// SPDX-License-Identifier: MIT\npragma solidity ^0.8.0;\n\n// Imports\nimport '../coffeeaccesscontrol/DistributorRole.sol';\nimport '../coffeeaccesscontrol/ConsumerRole.sol';\nimport '../coffeeaccesscontrol/RetailerRole.sol';\nimport '../coffeeaccesscontrol/FarmerRole.sol';\nimport '../coffeecore/Ownable.sol';\n\n// Define a contract 'Supplychain'\ncontract SupplyChain is DistributorRole, ConsumerRole, RetailerRole, FarmerRole, Ownable {\n\n    // Define a variable called 'upc' for Universal Product Code (UPC)\n    uint  upc;\n\n    // Define a variable called 'sku' for Stock Keeping Unit (SKU)\n    uint  sku;\n\n    // Define a public mapping 'items' that maps the UPC to an Item.\n    mapping (uint => Item) items;\n\n    // Define a public mapping 'itemsHistory' that maps the UPC to an array of TxHash, \n    // that track its journey through the supply chain -- to be sent from DApp.\n    mapping (uint => string[]) itemsHistory;\n    \n    // Define enum 'State' with the following values:\n    enum State { \n        Harvested,\n        Processed,\n        Packed,\n        ForSale,\n        Sold,\n        Shipped,\n        Received,\n        Purchased \n    }\n\n    // Define a struct 'Item' with the following fields:\n    struct Item {\n        uint    sku;                    // Stock Keeping Unit (SKU)\n        uint    upc;                    // Universal Product Code (UPC), generated by the Farmer, goes on the package, can be verified by the Consumer\n        address ownerID;                // Metamask-Ethereum address of the current owner as the product moves through 8 stages\n        address originFarmerID;         // Metamask-Ethereum address of the Farmer\n        string  originFarmName;         // Farmer Name\n        string  originFarmInformation;  // Farmer Information\n        string  originFarmLatitude;     // Farm Latitude\n        string  originFarmLongitude;    // Farm Longitude\n        uint    productID;              // Product ID potentially a combination of upc + sku\n        string  productNotes;           // Product Notes\n        uint    productPrice;           // Product Price\n        State   itemState;              // Product State as represented in the enum above\n        address distributorID;          // Metamask-Ethereum address of the Distributor\n        address retailerID;             // Metamask-Ethereum address of the Retailer\n        address consumerID;             // Metamask-Ethereum address of the Consumer\n    }\n\n    // Define 8 events with the same 8 state values and accept 'upc' as input argument\n    event Harvested(uint upc);\n    event Processed(uint upc);\n    event Packed(uint upc);\n    event ForSale(uint upc);\n    event Sold(uint upc);\n    event Shipped(uint upc);\n    event Received(uint upc);\n    event Purchased(uint upc);\n\n    /// @dev Constructor initializes 'sky' and 'upc' to 1\n    constructor() payable {\n        sku = 1;\n        upc = 1;\n    }\n\n    // Define a modifier that checks if the paid amount is sufficient to cover the price\n    modifier paidEnough(uint _price) { \n        require(msg.value >= _price); \n        _;\n    }\n    \n    // Define a modifier that checks the price and refunds the remaining balance\n    modifier checkValue(uint _upc) {\n        require(msg.value >= items[_upc].productPrice); \n        _;\n        uint _price = items[_upc].productPrice;\n        uint amountToReturn = msg.value - _price;\n        payable(items[_upc].consumerID).transfer(amountToReturn);\n    }\n\n    // Define a modifier that checks if an item.state of a upc is Harvested\n    modifier harvested(uint _upc) {\n        require(items[_upc].itemState == State.Harvested);\n        _;\n    }\n\n    // Define a modifier that checks if an item.state of a upc is Processed\n    modifier processed(uint _upc) {\n        require(items[_upc].itemState == State.Processed);\n        _;\n    }\n    \n    // Define a modifier that checks if an item.state of a upc is Packed\n    modifier packed(uint _upc) {\n        require(items[_upc].itemState == State.Packed);\n        _;\n    }\n\n    // Define a modifier that checks if an item.state of a upc is ForSale\n    modifier forSale(uint _upc) {\n        require(items[_upc].itemState == State.ForSale);\n        _;\n    }\n\n    // Define a modifier that checks if an item.state of a upc is Sold\n    modifier sold(uint _upc) {\n        require(items[_upc].itemState == State.Sold);\n        _;\n    }\n    \n    // Define a modifier that checks if an item.state of a upc is Shipped\n    modifier shipped(uint _upc) {\n        require(items[_upc].itemState == State.Shipped);\n        _;\n    }\n\n    // Define a modifier that checks if an item.state of a upc is Received\n    modifier received(uint _upc) {\n        require(items[_upc].itemState == State.Received);\n        _;\n    }\n\n    // Define a modifier that checks if an item.state of a upc is Purchased\n    modifier purchased(uint _upc) {\n        require(items[_upc].itemState == State.Purchased);\n        _;\n    }\n\n    // Define a function 'kill' if required. Only owner can call kill\n    function kill() public onlyOwner {\n        selfdestruct(payable(owner()));\n    }\n\n    // Define a function 'harvestItem' that allows a farmer to mark an item 'Harvested'\n    function harvestItem(uint _upc, address _originFarmerID, string memory _originFarmName, string memory _originFarmInformation, string memory _originFarmLatitude, string memory _originFarmLongitude, string memory _productNotes) onlyFarmer public {\n        // Only can harvest an item that is not harvest already\n        require(items[_upc].upc == 0, \"The UPC provided is already harvested\");\n        // Add the new item as part of Harvest\n        items[_upc] = Item(0, _upc, msg.sender, _originFarmerID, _originFarmName, _originFarmInformation, _originFarmLatitude, _originFarmLongitude, _upc + sku, _productNotes, 0, State.Harvested, address(0), address(0), address(0));\n        // Increment sku\n        sku = sku + 1;\n        // Emit the appropriate event\n        emit Harvested(_upc);\n    }\n\n    // Define a function 'processtItem' that allows a farmer to mark an item 'Processed'\n    function processItem(uint _upc) public onlyFarmer harvested(_upc) {\n        // Update the appropriate fields\n        items[_upc].itemState = State.Processed;\n        // Emit the appropriate event\n        emit Processed(_upc);\n    }\n\n    // Define a function 'packItem' that allows a farmer to mark an item 'Packed'\n    function packItem(uint _upc) public onlyFarmer processed(_upc) {\n        // Update the appropriate fields\n        items[_upc].itemState = State.Packed;\n        // Emit the appropriate event\n        emit Packed(_upc);\n    }\n\n    // Define a function 'putForSale' that allows a farmer to mark an item 'ForSale'\n    function putForSale(uint _upc, uint _price) public onlyFarmer packed(_upc){\n        // Update the appropriate fields\n        items[_upc].itemState = State.ForSale;\n        items[_upc].productPrice = _price;\n        // Emit the appropriate event\n        emit ForSale(_upc);\n    }\n\n    // Define a function 'buyItem' that allows the disributor to mark an item 'Sold'\n    // Use the above defined modifiers to check if the item is available for sale, if the buyer has paid enough, \n    // and any excess ether sent is refunded back to the buyer\n    function buyItem(uint _upc) public payable onlyDistributor forSale(_upc) paidEnough(items[_upc].productPrice) checkValue(_upc) {\n        // Transfer money to farmer\n        payable(items[_upc].originFarmerID).transfer(items[_upc].productPrice);\n        (bool sent, ) = payable(items[_upc].originFarmerID).call{value: msg.value}(\"\");\n        require(sent, \"Failed to send Ether\");\n        // If it goes well update the appropriate fields - ownerID, distributorID, itemState\n        items[_upc].ownerID = msg.sender;\n        items[_upc].distributorID = msg.sender;\n        items[_upc].itemState = State.Sold;\n        // emit the appropriate event\n        emit Sold(_upc);        \n    }\n\n    // Define a function 'shipItem' that allows the distributor to mark an item 'Shipped'\n    // Use the above modifers to check if the item is sold\n    function shipItem(uint _upc) public onlyDistributor sold(_upc) {\n        // Update the appropriate fields\n        items[_upc].itemState = State.Shipped;\n        // Emit the appropriate event\n        emit Shipped(_upc);        \n    }\n\n    // Define a function 'receiveItem' that allows the retailer to mark an item 'Received'\n    // Use the above modifiers to check if the item is shipped\n    function receiveItem(uint _upc) public onlyRetailer shipped(_upc) {\n        // Update the appropriate fields - ownerID, retailerID, itemState\n        items[_upc].ownerID = msg.sender;\n        items[_upc].retailerID = msg.sender;\n        items[_upc].itemState = State.Received;\n        // Emit the appropriate event\n        emit Received(_upc);\n    }\n\n    // Define a function 'purchaseItem' that allows the consumer to mark an item 'Purchased'\n    // Use the above modifiers to check if the item is received\n    function purchaseItem(uint _upc) onlyConsumer received(_upc) public {\n        // Update the appropriate fields - ownerID, consumerID, itemState\n        items[_upc].ownerID = msg.sender;\n        items[_upc].consumerID = msg.sender;\n        items[_upc].itemState = State.Purchased;\n        // Emit the appropriate event\n        emit Purchased(_upc);\n    }\n\n    // Define a function 'fetchItemBufferOne' that fetches the data\n    function fetchItemBuffer(uint _upc) public view returns (\n        uint itemSKU,\n        uint itemUPC,\n        address ownerID,\n        address originFarmerID,\n        string memory originFarmName,\n        string memory originFarmInformation,\n        string memory originFarmLatitude,\n        string memory originFarmLongitude) {\n        // Assign values to the 8 parameters\n        itemSKU = items[_upc].sku;\n        itemUPC = items[_upc].upc;\n        ownerID = items[_upc].ownerID;\n        originFarmerID = items[_upc].originFarmerID;\n        originFarmName = items[_upc].originFarmName;\n        originFarmInformation = items[_upc].originFarmInformation;\n        originFarmLatitude = items[_upc].originFarmLatitude;\n        originFarmLongitude = items[_upc].originFarmLongitude;\n        // Returns information\n        return (itemSKU, itemUPC, ownerID, originFarmerID, originFarmName, originFarmInformation, originFarmLatitude, originFarmLongitude);\n    }\n\n    // Define a function 'fetchItemBufferTwo' that fetches the data\n    function fetchItemBufferTwo(uint _upc) public view returns (\n        uint    itemSKU,\n        uint    itemUPC,\n        uint    productID,\n        string memory productNotes,\n        uint    productPrice,\n        uint    itemState,\n        address distributorID,\n        address retailerID,\n        address consumerID\n        ) {\n        // Assign values to the 9 parameters\n        itemSKU = items[_upc].sku;\n        itemUPC = items[_upc].upc;\n        productID = items[_upc].productID;\n        productNotes = items[_upc].productNotes;\n        productPrice = items[_upc].productPrice;\n        itemState = uint(items[_upc].itemState);\n        distributorID = items[_upc].distributorID;\n        retailerID = items[_upc].retailerID;\n        consumerID = items[_upc].consumerID;\n        // Returns information\n        return (itemSKU, itemUPC, productID, productNotes, productPrice, itemState, distributorID, retailerID, consumerID );\n    }\n}\n",
  "sourcePath": "/home/isma/Desktop/code/blockchain/CoffeBeanChain/truffle/contracts/coffeebase/SupplyChain.sol",
  "compiler": {
    "name": "solc",
    "version": "0.8.16+commit.07a7930e.Emscripten.clang"
  },
  "schemaVersion": "3.4.9",
  "updatedAt": "2022-08-25T19:24:22.595Z",
  "networkType": "ethereum",
  "devdoc": {
    "kind": "dev",
    "methods": {
      "constructor": {
        "details": "Constructor initializes 'sky' and 'upc' to 1"
      }
    },
    "version": 1
  },
  "userdoc": {
    "kind": "user",
    "methods": {
      "isOwner()": {
        "notice": "Check if the calling address is the owner of the contract"
      },
      "owner()": {
        "notice": "Look up the address of the owner"
      },
      "renounceOwnership()": {
        "notice": "Define a function to renounce ownerhip"
      },
      "transferOwnership(address)": {
        "notice": "Define a public function to transfer ownership"
      }
    },
    "version": 1
  }
}